{
  "contractName": "NFT_Rocket_Elevators_Full_Flat",
  "abi": [
    {
      "inputs": [
        {
          "internalType": "string",
          "name": "_name",
          "type": "string"
        },
        {
          "internalType": "string",
          "name": "_symbol",
          "type": "string"
        }
      ],
      "stateMutability": "nonpayable",
      "type": "constructor"
    },
    {
      "anonymous": false,
      "inputs": [
        {
          "indexed": true,
          "internalType": "address",
          "name": "owner",
          "type": "address"
        },
        {
          "indexed": true,
          "internalType": "address",
          "name": "approved",
          "type": "address"
        },
        {
          "indexed": true,
          "internalType": "uint256",
          "name": "tokenId",
          "type": "uint256"
        }
      ],
      "name": "Approval",
      "type": "event"
    },
    {
      "anonymous": false,
      "inputs": [
        {
          "indexed": true,
          "internalType": "address",
          "name": "owner",
          "type": "address"
        },
        {
          "indexed": true,
          "internalType": "address",
          "name": "operator",
          "type": "address"
        },
        {
          "indexed": false,
          "internalType": "bool",
          "name": "approved",
          "type": "bool"
        }
      ],
      "name": "ApprovalForAll",
      "type": "event"
    },
    {
      "anonymous": false,
      "inputs": [
        {
          "indexed": true,
          "internalType": "address",
          "name": "previousOwner",
          "type": "address"
        },
        {
          "indexed": true,
          "internalType": "address",
          "name": "newOwner",
          "type": "address"
        }
      ],
      "name": "OwnershipTransferred",
      "type": "event"
    },
    {
      "anonymous": false,
      "inputs": [
        {
          "indexed": false,
          "internalType": "address",
          "name": "payer",
          "type": "address"
        },
        {
          "indexed": false,
          "internalType": "uint256",
          "name": "amount",
          "type": "uint256"
        },
        {
          "indexed": false,
          "internalType": "uint256",
          "name": "date",
          "type": "uint256"
        }
      ],
      "name": "PaymentDone",
      "type": "event"
    },
    {
      "anonymous": false,
      "inputs": [
        {
          "indexed": true,
          "internalType": "address",
          "name": "from",
          "type": "address"
        },
        {
          "indexed": true,
          "internalType": "address",
          "name": "to",
          "type": "address"
        },
        {
          "indexed": true,
          "internalType": "uint256",
          "name": "tokenId",
          "type": "uint256"
        }
      ],
      "name": "Transfer",
      "type": "event"
    },
    {
      "inputs": [],
      "name": "NFTRocketCost",
      "outputs": [
        {
          "internalType": "uint256",
          "name": "",
          "type": "uint256"
        }
      ],
      "stateMutability": "view",
      "type": "function"
    },
    {
      "inputs": [
        {
          "internalType": "address",
          "name": "",
          "type": "address"
        }
      ],
      "name": "addressMintedBalance",
      "outputs": [
        {
          "internalType": "uint256",
          "name": "",
          "type": "uint256"
        }
      ],
      "stateMutability": "view",
      "type": "function"
    },
    {
      "inputs": [
        {
          "internalType": "address",
          "name": "to",
          "type": "address"
        },
        {
          "internalType": "uint256",
          "name": "tokenId",
          "type": "uint256"
        }
      ],
      "name": "approve",
      "outputs": [],
      "stateMutability": "nonpayable",
      "type": "function"
    },
    {
      "inputs": [
        {
          "internalType": "address",
          "name": "owner",
          "type": "address"
        }
      ],
      "name": "balanceOf",
      "outputs": [
        {
          "internalType": "uint256",
          "name": "",
          "type": "uint256"
        }
      ],
      "stateMutability": "view",
      "type": "function"
    },
    {
      "inputs": [],
      "name": "baseExtension",
      "outputs": [
        {
          "internalType": "string",
          "name": "",
          "type": "string"
        }
      ],
      "stateMutability": "view",
      "type": "function"
    },
    {
      "inputs": [],
      "name": "baseURI",
      "outputs": [
        {
          "internalType": "string",
          "name": "",
          "type": "string"
        }
      ],
      "stateMutability": "view",
      "type": "function"
    },
    {
      "inputs": [],
      "name": "cost",
      "outputs": [
        {
          "internalType": "uint256",
          "name": "",
          "type": "uint256"
        }
      ],
      "stateMutability": "view",
      "type": "function"
    },
    {
      "inputs": [],
      "name": "discountCost",
      "outputs": [
        {
          "internalType": "uint256",
          "name": "",
          "type": "uint256"
        }
      ],
      "stateMutability": "view",
      "type": "function"
    },
    {
      "inputs": [],
      "name": "discountNFTRocketCost",
      "outputs": [
        {
          "internalType": "uint256",
          "name": "",
          "type": "uint256"
        }
      ],
      "stateMutability": "view",
      "type": "function"
    },
    {
      "inputs": [
        {
          "internalType": "uint256",
          "name": "tokenId",
          "type": "uint256"
        }
      ],
      "name": "getApproved",
      "outputs": [
        {
          "internalType": "address",
          "name": "",
          "type": "address"
        }
      ],
      "stateMutability": "view",
      "type": "function"
    },
    {
      "inputs": [
        {
          "internalType": "address",
          "name": "owner",
          "type": "address"
        },
        {
          "internalType": "address",
          "name": "operator",
          "type": "address"
        }
      ],
      "name": "isApprovedForAll",
      "outputs": [
        {
          "internalType": "bool",
          "name": "",
          "type": "bool"
        }
      ],
      "stateMutability": "view",
      "type": "function"
    },
    {
      "inputs": [],
      "name": "maxMintAmount",
      "outputs": [
        {
          "internalType": "uint256",
          "name": "",
          "type": "uint256"
        }
      ],
      "stateMutability": "view",
      "type": "function"
    },
    {
      "inputs": [],
      "name": "maxSupply",
      "outputs": [
        {
          "internalType": "uint256",
          "name": "",
          "type": "uint256"
        }
      ],
      "stateMutability": "view",
      "type": "function"
    },
    {
      "inputs": [],
      "name": "name",
      "outputs": [
        {
          "internalType": "string",
          "name": "",
          "type": "string"
        }
      ],
      "stateMutability": "view",
      "type": "function"
    },
    {
      "inputs": [],
      "name": "notRevealedUri",
      "outputs": [
        {
          "internalType": "string",
          "name": "",
          "type": "string"
        }
      ],
      "stateMutability": "view",
      "type": "function"
    },
    {
      "inputs": [],
      "name": "owner",
      "outputs": [
        {
          "internalType": "address",
          "name": "",
          "type": "address"
        }
      ],
      "stateMutability": "view",
      "type": "function"
    },
    {
      "inputs": [
        {
          "internalType": "uint256",
          "name": "tokenId",
          "type": "uint256"
        }
      ],
      "name": "ownerOf",
      "outputs": [
        {
          "internalType": "address",
          "name": "",
          "type": "address"
        }
      ],
      "stateMutability": "view",
      "type": "function"
    },
    {
      "inputs": [],
      "name": "paused",
      "outputs": [
        {
          "internalType": "bool",
          "name": "",
          "type": "bool"
        }
      ],
      "stateMutability": "view",
      "type": "function"
    },
    {
      "inputs": [],
      "name": "renounceOwnership",
      "outputs": [],
      "stateMutability": "nonpayable",
      "type": "function"
    },
    {
      "inputs": [],
      "name": "revealDate",
      "outputs": [
        {
          "internalType": "uint256",
          "name": "",
          "type": "uint256"
        }
      ],
      "stateMutability": "view",
      "type": "function"
    },
    {
      "inputs": [],
      "name": "rocketTokenAddress",
      "outputs": [
        {
          "internalType": "string",
          "name": "",
          "type": "string"
        }
      ],
      "stateMutability": "view",
      "type": "function"
    },
    {
      "inputs": [
        {
          "internalType": "address",
          "name": "from",
          "type": "address"
        },
        {
          "internalType": "address",
          "name": "to",
          "type": "address"
        },
        {
          "internalType": "uint256",
          "name": "tokenId",
          "type": "uint256"
        }
      ],
      "name": "safeTransferFrom",
      "outputs": [],
      "stateMutability": "nonpayable",
      "type": "function"
    },
    {
      "inputs": [
        {
          "internalType": "address",
          "name": "from",
          "type": "address"
        },
        {
          "internalType": "address",
          "name": "to",
          "type": "address"
        },
        {
          "internalType": "uint256",
          "name": "tokenId",
          "type": "uint256"
        },
        {
          "internalType": "bytes",
          "name": "_data",
          "type": "bytes"
        }
      ],
      "name": "safeTransferFrom",
      "outputs": [],
      "stateMutability": "nonpayable",
      "type": "function"
    },
    {
      "inputs": [],
      "name": "saleStartDate",
      "outputs": [
        {
          "internalType": "uint256",
          "name": "",
          "type": "uint256"
        }
      ],
      "stateMutability": "view",
      "type": "function"
    },
    {
      "inputs": [
        {
          "internalType": "address",
          "name": "operator",
          "type": "address"
        },
        {
          "internalType": "bool",
          "name": "approved",
          "type": "bool"
        }
      ],
      "name": "setApprovalForAll",
      "outputs": [],
      "stateMutability": "nonpayable",
      "type": "function"
    },
    {
      "inputs": [
        {
          "internalType": "bytes4",
          "name": "interfaceId",
          "type": "bytes4"
        }
      ],
      "name": "supportsInterface",
      "outputs": [
        {
          "internalType": "bool",
          "name": "",
          "type": "bool"
        }
      ],
      "stateMutability": "view",
      "type": "function"
    },
    {
      "inputs": [],
      "name": "symbol",
      "outputs": [
        {
          "internalType": "string",
          "name": "",
          "type": "string"
        }
      ],
      "stateMutability": "view",
      "type": "function"
    },
    {
      "inputs": [
        {
          "internalType": "uint256",
          "name": "index",
          "type": "uint256"
        }
      ],
      "name": "tokenByIndex",
      "outputs": [
        {
          "internalType": "uint256",
          "name": "",
          "type": "uint256"
        }
      ],
      "stateMutability": "view",
      "type": "function"
    },
    {
      "inputs": [
        {
          "internalType": "address",
          "name": "owner",
          "type": "address"
        },
        {
          "internalType": "uint256",
          "name": "index",
          "type": "uint256"
        }
      ],
      "name": "tokenOfOwnerByIndex",
      "outputs": [
        {
          "internalType": "uint256",
          "name": "",
          "type": "uint256"
        }
      ],
      "stateMutability": "view",
      "type": "function"
    },
    {
      "inputs": [],
      "name": "totalSupply",
      "outputs": [
        {
          "internalType": "uint256",
          "name": "",
          "type": "uint256"
        }
      ],
      "stateMutability": "view",
      "type": "function"
    },
    {
      "inputs": [
        {
          "internalType": "address",
          "name": "from",
          "type": "address"
        },
        {
          "internalType": "address",
          "name": "to",
          "type": "address"
        },
        {
          "internalType": "uint256",
          "name": "tokenId",
          "type": "uint256"
        }
      ],
      "name": "transferFrom",
      "outputs": [],
      "stateMutability": "nonpayable",
      "type": "function"
    },
    {
      "inputs": [
        {
          "internalType": "address",
          "name": "newOwner",
          "type": "address"
        }
      ],
      "name": "transferOwnership",
      "outputs": [],
      "stateMutability": "nonpayable",
      "type": "function"
    },
    {
      "inputs": [
        {
          "internalType": "uint256",
          "name": "",
          "type": "uint256"
        }
      ],
      "name": "whitelistedAddresses",
      "outputs": [
        {
          "internalType": "address",
          "name": "",
          "type": "address"
        }
      ],
      "stateMutability": "view",
      "type": "function"
    },
    {
      "inputs": [
        {
          "internalType": "uint256",
          "name": "_mintAmount",
          "type": "uint256"
        }
      ],
      "name": "mint",
      "outputs": [],
      "stateMutability": "payable",
      "type": "function"
    },
    {
      "inputs": [],
      "name": "checkIfPresaleOver",
      "outputs": [
        {
          "internalType": "bool",
          "name": "",
          "type": "bool"
        }
      ],
      "stateMutability": "nonpayable",
      "type": "function"
    },
    {
      "inputs": [
        {
          "internalType": "uint256",
          "name": "_mintAmount",
          "type": "uint256"
        }
      ],
      "name": "mintWithRocketToken",
      "outputs": [],
      "stateMutability": "nonpayable",
      "type": "function"
    },
    {
      "inputs": [
        {
          "internalType": "address",
          "name": "_user",
          "type": "address"
        }
      ],
      "name": "isWhitelisted",
      "outputs": [
        {
          "internalType": "bool",
          "name": "",
          "type": "bool"
        }
      ],
      "stateMutability": "view",
      "type": "function"
    },
    {
      "inputs": [
        {
          "internalType": "address",
          "name": "_owner",
          "type": "address"
        }
      ],
      "name": "walletOfOwner",
      "outputs": [
        {
          "internalType": "uint256[]",
          "name": "",
          "type": "uint256[]"
        }
      ],
      "stateMutability": "view",
      "type": "function"
    },
    {
      "inputs": [
        {
          "internalType": "uint256",
          "name": "tokenId",
          "type": "uint256"
        }
      ],
      "name": "tokenURI",
      "outputs": [
        {
          "internalType": "string",
          "name": "",
          "type": "string"
        }
      ],
      "stateMutability": "view",
      "type": "function"
    },
    {
      "inputs": [
        {
          "internalType": "uint256",
          "name": "newRevealDate",
          "type": "uint256"
        }
      ],
      "name": "setRevealDate",
      "outputs": [],
      "stateMutability": "nonpayable",
      "type": "function"
    },
    {
      "inputs": [
        {
          "internalType": "uint256",
          "name": "newSaleStartDate",
          "type": "uint256"
        }
      ],
      "name": "setSaleStartDate",
      "outputs": [],
      "stateMutability": "nonpayable",
      "type": "function"
    },
    {
      "inputs": [
        {
          "internalType": "uint256",
          "name": "_newCost",
          "type": "uint256"
        }
      ],
      "name": "setCost",
      "outputs": [],
      "stateMutability": "nonpayable",
      "type": "function"
    },
    {
      "inputs": [
        {
          "internalType": "uint256",
          "name": "_newDiscountCost",
          "type": "uint256"
        }
      ],
      "name": "setDiscountCost",
      "outputs": [],
      "stateMutability": "nonpayable",
      "type": "function"
    },
    {
      "inputs": [
        {
          "internalType": "uint256",
          "name": "_newmaxMintAmount",
          "type": "uint256"
        }
      ],
      "name": "setmaxMintAmount",
      "outputs": [],
      "stateMutability": "nonpayable",
      "type": "function"
    },
    {
      "inputs": [
        {
          "internalType": "string",
          "name": "_newBaseURI",
          "type": "string"
        }
      ],
      "name": "setBaseURI",
      "outputs": [],
      "stateMutability": "nonpayable",
      "type": "function"
    },
    {
      "inputs": [
        {
          "internalType": "string",
          "name": "_newBaseExtension",
          "type": "string"
        }
      ],
      "name": "setBaseExtension",
      "outputs": [],
      "stateMutability": "nonpayable",
      "type": "function"
    },
    {
      "inputs": [
        {
          "internalType": "string",
          "name": "_notRevealedURI",
          "type": "string"
        }
      ],
      "name": "setNotRevealedURI",
      "outputs": [],
      "stateMutability": "nonpayable",
      "type": "function"
    },
    {
      "inputs": [],
      "name": "getSaleStart",
      "outputs": [
        {
          "internalType": "uint256",
          "name": "",
          "type": "uint256"
        }
      ],
      "stateMutability": "nonpayable",
      "type": "function"
    },
    {
      "inputs": [
        {
          "internalType": "bool",
          "name": "_state",
          "type": "bool"
        }
      ],
      "name": "pause",
      "outputs": [],
      "stateMutability": "nonpayable",
      "type": "function"
    },
    {
      "inputs": [
        {
          "internalType": "address[]",
          "name": "_users",
          "type": "address[]"
        }
      ],
      "name": "whitelistUsers",
      "outputs": [],
      "stateMutability": "nonpayable",
      "type": "function"
    },
    {
      "inputs": [
        {
          "internalType": "address",
          "name": "add",
          "type": "address"
        }
      ],
      "name": "whitelistAddress",
      "outputs": [],
      "stateMutability": "nonpayable",
      "type": "function"
    },
    {
      "inputs": [],
      "name": "withdraw",
      "outputs": [],
      "stateMutability": "payable",
      "type": "function"
    }
  ],
  "bytecode": "0x60c06040526005608081905264173539b7b760d91b60a09081526200002891600c9190620003e5565b50662386f26fc10000600e556611c37937e08000600f556103e8601055600a6011556012805460ff19169055620186a060135561c3506014556040805160608101909152602a8082526200382d602083013980516200009091601591602090910190620003e5565b506361c60aa06016556361c9c6e0601755348015620000ae57600080fd5b50604051620038ce380380620038ce833981016040819052620000d19162000536565b815182908290620000ea906000906020850190620003e5565b50805162000100906001906020840190620003e5565b5050506200011d62000117620002bd60201b60201c565b620002c1565b62000141604051806060016040528060368152602001620038576036913962000313565b620001656040518060800160405280604181526020016200388d604191396200037b565b5050601880546001818101835560008390527fb13d2d76d1f4b7be834882e410b3e3a8afaf69f83600ae24db354391d2378d2e91820180546001600160a01b03199081167349c99db83ea1cda354b718a4be90f4b1c3dc94a4179091558354808301855583018054821673d1679bb3543e8ad195ff9f3ac3436039ba3892371790558354808301855583018054821673de4f53f2735467330b8b884abdd0d131aa98ef821790558354808301855583018054821673b28c0431f0d4ead93167c18bc25f7959fd56dd2a179055835480830185558301805482167360911dc5af0df086cd685d9e2d35744e266184a790811790915584548084018655840180548316735e0aca5ca440a91da8d51f893da92e332a9a5fd517905584548084018655840180548316739edbe91e988294abe24e0282d21cbf9ee796cb20179055845492830190945591018054909116909117905562000625565b3390565b600a80546001600160a01b038381166001600160a01b0319831681179093556040519116919082907f8be0079c531659141344cd1fd0a4f28419497f9722a3daafe3b4186f6b6457e090600090a35050565b6200031d620002bd565b6001600160a01b031662000330620003d6565b6001600160a01b031614620003625760405162461bcd60e51b815260040162000359906200059d565b60405180910390fd5b80516200037790600b906020840190620003e5565b5050565b62000385620002bd565b6001600160a01b031662000398620003d6565b6001600160a01b031614620003c15760405162461bcd60e51b815260040162000359906200059d565b80516200037790600d906020840190620003e5565b600a546001600160a01b031690565b828054620003f390620005d2565b90600052602060002090601f01602090048101928262000417576000855562000462565b82601f106200043257805160ff191683800117855562000462565b8280016001018555821562000462579182015b828111156200046257825182559160200191906001019062000445565b506200047092915062000474565b5090565b5b8082111562000470576000815560010162000475565b600082601f8301126200049c578081fd5b81516001600160401b0380821115620004b957620004b96200060f565b6040516020601f8401601f1916820181018381118382101715620004e157620004e16200060f565b6040528382528584018101871015620004f8578485fd5b8492505b838310156200051b5785830181015182840182015291820191620004fc565b838311156200052c57848185840101525b5095945050505050565b6000806040838503121562000549578182fd5b82516001600160401b038082111562000560578384fd5b6200056e868387016200048b565b9350602085015191508082111562000584578283fd5b5062000593858286016200048b565b9150509250929050565b6020808252818101527f4f776e61626c653a2063616c6c6572206973206e6f7420746865206f776e6572604082015260600190565b600281046001821680620005e757607f821691505b602082108114156200060957634e487b7160e01b600052602260045260246000fd5b50919050565b634e487b7160e01b600052604160045260246000fd5b6131f880620006356000396000f3fe6080604052600436106102ff5760003560e01c80636352211e11610190578063a22cb465116100dc578063d5abeb0111610095578063e985e9c51161006f578063e985e9c51461084f578063edec5f271461086f578063f2c4ce1e1461088f578063f2fde38b146108af576102ff565b8063d5abeb01146107fa578063da3ef23f1461080f578063de1cd36a1461082f576102ff565b8063a22cb46514610750578063b88d4fde14610770578063ba4e5c4914610790578063bba64ab4146107b0578063c6682862146107c5578063c87b56dd146107da576102ff565b80637ff081a21161014957806395b5ae5a1161012357806395b5ae5a146106fe57806395d89b4114610713578063969235a414610728578063a0712d681461073d576102ff565b80637ff081a2146106b45780638973123c146106d45780638da5cb5b146106e9576102ff565b80636352211e146106155780636c0360eb1461063557806370a082311461064a578063715018a61461066a57806377fab02c1461067f5780637f00c7a614610694576102ff565b80632f745c591161024f578063415665851161020857806344a0d68a116101e257806344a0d68a146105a05780634f6ccce7146105c057806355f804b3146105e05780635c975abb14610600576102ff565b8063415665851461053357806342842e0e14610553578063438b630014610573576102ff565b80632f745c59146104a15780633685880e146104c15780633a515b2f146104d65780633a55da53146104f65780633af32abf1461050b5780633ccfd60b1461052b576102ff565b80630c88b731116102bc57806318cae2691161029657806318cae269146104375780631e08a9e414610457578063239c70ae1461046c57806323b872dd14610481576102ff565b80630c88b731146103e057806313faede61461040057806318160ddd14610422576102ff565b806301ffc9a71461030457806302329a291461033a57806306fdde031461035c578063081812fc1461037e578063081c8c44146103ab578063095ea7b3146103c0575b600080fd5b34801561031057600080fd5b5061032461031f366004612746565b6108cf565b60405161033191906129bf565b60405180910390f35b34801561034657600080fd5b5061035a61035536600461270e565b6108fc565b005b34801561036857600080fd5b50610371610957565b60405161033191906129ca565b34801561038a57600080fd5b5061039e6103993660046127c4565b6109e9565b60405161033191906128e5565b3480156103b757600080fd5b50610371610a2c565b3480156103cc57600080fd5b5061035a6103db366004612676565b610aba565b3480156103ec57600080fd5b5061035a6103fb3660046127c4565b610b52565b34801561040c57600080fd5b50610415610b96565b604051610331919061304f565b34801561042e57600080fd5b50610415610b9c565b34801561044357600080fd5b50610415610452366004612539565b610ba2565b34801561046357600080fd5b50610415610bb4565b34801561047857600080fd5b50610415610bba565b34801561048d57600080fd5b5061035a61049c36600461258c565b610bc0565b3480156104ad57600080fd5b506104156104bc366004612676565b610bf8565b3480156104cd57600080fd5b50610415610c4a565b3480156104e257600080fd5b5061035a6104f13660046127c4565b610c50565b34801561050257600080fd5b50610324610c94565b34801561051757600080fd5b50610324610526366004612539565b610c9d565b61035a610d16565b34801561053f57600080fd5b5061035a61054e366004612539565b610dc8565b34801561055f57600080fd5b5061035a61056e36600461258c565b610e59565b34801561057f57600080fd5b5061059361058e366004612539565b610e74565b604051610331919061297b565b3480156105ac57600080fd5b5061035a6105bb3660046127c4565b610f32565b3480156105cc57600080fd5b506104156105db3660046127c4565b610f76565b3480156105ec57600080fd5b5061035a6105fb36600461277e565b610fd1565b34801561060c57600080fd5b50610324611027565b34801561062157600080fd5b5061039e6106303660046127c4565b611030565b34801561064157600080fd5b50610371611065565b34801561065657600080fd5b50610415610665366004612539565b611072565b34801561067657600080fd5b5061035a6110b6565b34801561068b57600080fd5b50610415611101565b3480156106a057600080fd5b5061035a6106af3660046127c4565b611107565b3480156106c057600080fd5b5061035a6106cf3660046127c4565b61114b565b3480156106e057600080fd5b5061041561118f565b3480156106f557600080fd5b5061039e611195565b34801561070a57600080fd5b506103716111a4565b34801561071f57600080fd5b506103716111b1565b34801561073457600080fd5b506104156111c0565b61035a61074b3660046127c4565b6111c6565b34801561075c57600080fd5b5061035a61076b366004612640565b61139f565b34801561077c57600080fd5b5061035a61078b3660046125c7565b61146d565b34801561079c57600080fd5b5061039e6107ab3660046127c4565b6114ac565b3480156107bc57600080fd5b506104156114d6565b3480156107d157600080fd5b506103716114dc565b3480156107e657600080fd5b506103716107f53660046127c4565b6114e9565b34801561080657600080fd5b5061041561160b565b34801561081b57600080fd5b5061035a61082a36600461277e565b611611565b34801561083b57600080fd5b5061035a61084a3660046127c4565b611663565b34801561085b57600080fd5b5061032461086a36600461255a565b611946565b34801561087b57600080fd5b5061035a61088a36600461269f565b611974565b34801561089b57600080fd5b5061035a6108aa36600461277e565b6119cb565b3480156108bb57600080fd5b5061035a6108ca366004612539565b611a1d565b60006001600160e01b0319821663780e9d6360e01b14806108f457506108f482611a8b565b90505b919050565b610904611acb565b6001600160a01b0316610915611195565b6001600160a01b0316146109445760405162461bcd60e51b815260040161093b90612dda565b60405180910390fd5b6012805460ff1916911515919091179055565b606060008054610966906130f2565b80601f0160208091040260200160405190810160405280929190818152602001828054610992906130f2565b80156109df5780601f106109b4576101008083540402835291602001916109df565b820191906000526020600020905b8154815290600101906020018083116109c257829003601f168201915b5050505050905090565b60006109f482611acf565b610a105760405162461bcd60e51b815260040161093b90612d8e565b506000908152600460205260409020546001600160a01b031690565b600d8054610a39906130f2565b80601f0160208091040260200160405190810160405280929190818152602001828054610a65906130f2565b8015610ab25780601f10610a8757610100808354040283529160200191610ab2565b820191906000526020600020905b815481529060010190602001808311610a9557829003601f168201915b505050505081565b6000610ac582611030565b9050806001600160a01b0316836001600160a01b03161415610af95760405162461bcd60e51b815260040161093b90612ed7565b806001600160a01b0316610b0b611acb565b6001600160a01b03161480610b275750610b278161086a611acb565b610b435760405162461bcd60e51b815260040161093b90612bbe565b610b4d8383611aec565b505050565b610b5a611acb565b6001600160a01b0316610b6b611195565b6001600160a01b031614610b915760405162461bcd60e51b815260040161093b90612dda565b601755565b600e5481565b60085490565b60196020526000908152604090205481565b60175481565b60115481565b610bd1610bcb611acb565b82611b5a565b610bed5760405162461bcd60e51b815260040161093b90612f44565b610b4d838383611bdf565b6000610c0383611072565b8210610c215760405162461bcd60e51b815260040161093b906129dd565b506001600160a01b03919091166000908152600660209081526040808320938352929052205490565b60135481565b610c58611acb565b6001600160a01b0316610c69611195565b6001600160a01b031614610c8f5760405162461bcd60e51b815260040161093b90612dda565b600f55565b60165442111590565b6000805b601854811015610d0d57826001600160a01b031660188281548110610cd657634e487b7160e01b600052603260045260246000fd5b6000918252602090912001546001600160a01b03161415610cfb5760019150506108f7565b80610d058161312d565b915050610ca1565b50600092915050565b610d1e611acb565b6001600160a01b0316610d2f611195565b6001600160a01b031614610d555760405162461bcd60e51b815260040161093b90612dda565b6000610d5f611195565b6001600160a01b031647604051610d75906128e2565b60006040518083038185875af1925050503d8060008114610db2576040519150601f19603f3d011682016040523d82523d6000602084013e610db7565b606091505b5050905080610dc557600080fd5b50565b610dd0611acb565b6001600160a01b0316610de1611195565b6001600160a01b031614610e075760405162461bcd60e51b815260040161093b90612dda565b601880546001810182556000919091527fb13d2d76d1f4b7be834882e410b3e3a8afaf69f83600ae24db354391d2378d2e0180546001600160a01b0319166001600160a01b0392909216919091179055565b610b4d8383836040518060200160405280600081525061146d565b60606000610e8183611072565b905060008167ffffffffffffffff811115610eac57634e487b7160e01b600052604160045260246000fd5b604051908082528060200260200182016040528015610ed5578160200160208202803683370190505b50905060005b82811015610f2a57610eed8582610bf8565b828281518110610f0d57634e487b7160e01b600052603260045260246000fd5b602090810291909101015280610f228161312d565b915050610edb565b509392505050565b610f3a611acb565b6001600160a01b0316610f4b611195565b6001600160a01b031614610f715760405162461bcd60e51b815260040161093b90612dda565b600e55565b6000610f80610b9c565b8210610f9e5760405162461bcd60e51b815260040161093b90612f95565b60088281548110610fbf57634e487b7160e01b600052603260045260246000fd5b90600052602060002001549050919050565b610fd9611acb565b6001600160a01b0316610fea611195565b6001600160a01b0316146110105760405162461bcd60e51b815260040161093b90612dda565b805161102390600b9060208401906123a8565b5050565b60125460ff1681565b6000818152600260205260408120546001600160a01b0316806108f45760405162461bcd60e51b815260040161093b90612c65565b600b8054610a39906130f2565b60006001600160a01b03821661109a5760405162461bcd60e51b815260040161093b90612c1b565b506001600160a01b031660009081526003602052604090205490565b6110be611acb565b6001600160a01b03166110cf611195565b6001600160a01b0316146110f55760405162461bcd60e51b815260040161093b90612dda565b6110ff6000611d0c565b565b60145481565b61110f611acb565b6001600160a01b0316611120611195565b6001600160a01b0316146111465760405162461bcd60e51b815260040161093b90612dda565b601155565b611153611acb565b6001600160a01b0316611164611195565b6001600160a01b03161461118a5760405162461bcd60e51b815260040161093b90612dda565b601655565b60165481565b600a546001600160a01b031690565b60158054610a39906130f2565b606060018054610966906130f2565b60165490565b60125460ff16156111e95760405162461bcd60e51b815260040161093b90612e0f565b60006111f3610b9c565b9050600082116112155760405162461bcd60e51b815260040161093b90613018565b6011548211156112375760405162461bcd60e51b815260040161093b90612cde565b6010546112448383613064565b11156112625760405162461bcd60e51b815260040161093b90612cae565b61126a611195565b6001600160a01b0316336001600160a01b03161461130f5760165442118015906112e05761129733610c9d565b6112b35760405162461bcd60e51b815260040161093b90612fe1565b82600f546112c19190613090565b3410156112e05760405162461bcd60e51b815260040161093b90612f18565b82600e546112ee9190613090565b34101561130d5760405162461bcd60e51b815260040161093b90612f18565b505b60015b82811161135f573360009081526019602052604081208054916113348361312d565b9091555061134d9050336113488385613064565b611d5e565b806113578161312d565b915050611312565b507fbebec2d19ea8d9e88190609292a424056d54cc57eedf2d75737cedee4fa2938b3383426040516113939392919061295a565b60405180910390a15050565b6113a7611acb565b6001600160a01b0316826001600160a01b031614156113d85760405162461bcd60e51b815260040161093b90612b3b565b80600560006113e5611acb565b6001600160a01b03908116825260208083019390935260409182016000908120918716808252919093529120805460ff191692151592909217909155611429611acb565b6001600160a01b03167f17307eab39ab6107e8899845ad3d59bd9653f200f220920489ca2b5937696c318360405161146191906129bf565b60405180910390a35050565b61147e611478611acb565b83611b5a565b61149a5760405162461bcd60e51b815260040161093b90612f44565b6114a684848484611d78565b50505050565b601881815481106114bc57600080fd5b6000918252602090912001546001600160a01b0316905081565b600f5481565b600c8054610a39906130f2565b60606114f482611acf565b6115105760405162461bcd60e51b815260040161093b90612e88565b60175442116115ab57600d8054611526906130f2565b80601f0160208091040260200160405190810160405280929190818152602001828054611552906130f2565b801561159f5780601f106115745761010080835404028352916020019161159f565b820191906000526020600020905b81548152906001019060200180831161158257829003601f168201915b505050505090506108f7565b60006115b5611dab565b905060008151116115d55760405180602001604052806000815250611603565b806115df84611dba565b600c6040516020016115f393929190612820565b6040516020818303038152906040525b9150506108f7565b60105481565b611619611acb565b6001600160a01b031661162a611195565b6001600160a01b0316146116505760405162461bcd60e51b815260040161093b90612dda565b805161102390600c9060208401906123a8565b600061166d610b9c565b6040516370a0823160e01b8152909150733b8f02aa259f1c55fc2afaff9cc3695074ff80eb9060009082906370a08231906116ac9033906004016128e5565b60206040518083038186803b1580156116c457600080fd5b505afa1580156116d8573d6000803e3d6000fd5b505050506040513d601f19601f820116820180604052508101906116fc91906127dc565b9050611706611195565b6001600160a01b0316336001600160a01b0316146118b95760165442118015906117fa5761173333610c9d565b61174f5760405162461bcd60e51b815260040161093b90612d22565b8460145461175d9190613090565b82101561176957600080fd5b826001600160a01b03166323b872dd3330886014546117889190613090565b6040518463ffffffff1660e01b81526004016117a6939291906128f9565b602060405180830381600087803b1580156117c057600080fd5b505af11580156117d4573d6000803e3d6000fd5b505050506040513d601f19601f820116820180604052508101906117f8919061272a565b505b846013546118089190613090565b8210156118275760405162461bcd60e51b815260040161093b90612f18565b826001600160a01b03166323b872dd3330886013546118469190613090565b6040518463ffffffff1660e01b8152600401611864939291906128f9565b602060405180830381600087803b15801561187e57600080fd5b505af1158015611892573d6000803e3d6000fd5b505050506040513d601f19601f820116820180604052508101906118b6919061272a565b50505b60015b848111611904573360009081526019602052604081208054916118de8361312d565b909155506118f29050336113488387613064565b806118fc8161312d565b9150506118bc565b507fbebec2d19ea8d9e88190609292a424056d54cc57eedf2d75737cedee4fa2938b3385426040516119389392919061295a565b60405180910390a150505050565b6001600160a01b03918216600090815260056020908152604080832093909416825291909152205460ff1690565b61197c611acb565b6001600160a01b031661198d611195565b6001600160a01b0316146119b35760405162461bcd60e51b815260040161093b90612dda565b6119bf6018600061242c565b610b4d6018838361244a565b6119d3611acb565b6001600160a01b03166119e4611195565b6001600160a01b031614611a0a5760405162461bcd60e51b815260040161093b90612dda565b805161102390600d9060208401906123a8565b611a25611acb565b6001600160a01b0316611a36611195565b6001600160a01b031614611a5c5760405162461bcd60e51b815260040161093b90612dda565b6001600160a01b038116611a825760405162461bcd60e51b815260040161093b90612a7a565b610dc581611d0c565b60006001600160e01b031982166380ac58cd60e01b1480611abc57506001600160e01b03198216635b5e139f60e01b145b806108f457506108f482611ed5565b3390565b6000908152600260205260409020546001600160a01b0316151590565b600081815260046020526040902080546001600160a01b0319166001600160a01b0384169081179091558190611b2182611030565b6001600160a01b03167f8c5be1e5ebec7d5bd14f71427d1e84f3dd0314c0f7b2291e5b200ac8c7c3b92560405160405180910390a45050565b6000611b6582611acf565b611b815760405162461bcd60e51b815260040161093b90612b72565b6000611b8c83611030565b9050806001600160a01b0316846001600160a01b03161480611bc75750836001600160a01b0316611bbc846109e9565b6001600160a01b0316145b80611bd75750611bd78185611946565b949350505050565b826001600160a01b0316611bf282611030565b6001600160a01b031614611c185760405162461bcd60e51b815260040161093b90612e3f565b6001600160a01b038216611c3e5760405162461bcd60e51b815260040161093b90612af7565b611c49838383611eee565b611c54600082611aec565b6001600160a01b0383166000908152600360205260408120805460019290611c7d9084906130af565b90915550506001600160a01b0382166000908152600360205260408120805460019290611cab908490613064565b909155505060008181526002602052604080822080546001600160a01b0319166001600160a01b0386811691821790925591518493918716917fddf252ad1be2c89b69c2b068fc378daa952ba7f163c4a11628f55a4df523b3ef91a4505050565b600a80546001600160a01b038381166001600160a01b0319831681179093556040519116919082907f8be0079c531659141344cd1fd0a4f28419497f9722a3daafe3b4186f6b6457e090600090a35050565b611023828260405180602001604052806000815250611f77565b611d83848484611bdf565b611d8f84848484611faa565b6114a65760405162461bcd60e51b815260040161093b90612a28565b6060600b8054610966906130f2565b606081611ddf57506040805180820190915260018152600360fc1b60208201526108f7565b8160005b8115611e095780611df38161312d565b9150611e029050600a8361307c565b9150611de3565b60008167ffffffffffffffff811115611e3257634e487b7160e01b600052604160045260246000fd5b6040519080825280601f01601f191660200182016040528015611e5c576020820181803683370190505b5090505b8415611bd757611e716001836130af565b9150611e7e600a86613148565b611e89906030613064565b60f81b818381518110611eac57634e487b7160e01b600052603260045260246000fd5b60200101906001600160f81b031916908160001a905350611ece600a8661307c565b9450611e60565b6001600160e01b031981166301ffc9a760e01b14919050565b611ef9838383610b4d565b6001600160a01b038316611f1557611f10816120c5565b611f38565b816001600160a01b0316836001600160a01b031614611f3857611f388382612109565b6001600160a01b038216611f5457611f4f816121a6565b610b4d565b826001600160a01b0316826001600160a01b031614610b4d57610b4d828261227f565b611f8183836122c3565b611f8e6000848484611faa565b610b4d5760405162461bcd60e51b815260040161093b90612a28565b6000611fbe846001600160a01b03166123a2565b156120ba57836001600160a01b031663150b7a02611fda611acb565b8786866040518563ffffffff1660e01b8152600401611ffc949392919061291d565b602060405180830381600087803b15801561201657600080fd5b505af1925050508015612046575060408051601f3d908101601f1916820190925261204391810190612762565b60015b6120a0573d808015612074576040519150601f19603f3d011682016040523d82523d6000602084013e612079565b606091505b5080516120985760405162461bcd60e51b815260040161093b90612a28565b805181602001fd5b6001600160e01b031916630a85bd0160e11b149050611bd7565b506001949350505050565b600880546000838152600960205260408120829055600182018355919091527ff3f7a9fe364faab93b216da50a3214154f22a0a2b415b23a84c8169e8b636ee30155565b6000600161211684611072565b61212091906130af565b600083815260076020526040902054909150808214612173576001600160a01b03841660009081526006602090815260408083208584528252808320548484528184208190558352600790915290208190555b5060009182526007602090815260408084208490556001600160a01b039094168352600681528383209183525290812055565b6008546000906121b8906001906130af565b600083815260096020526040812054600880549394509092849081106121ee57634e487b7160e01b600052603260045260246000fd5b90600052602060002001549050806008838154811061221d57634e487b7160e01b600052603260045260246000fd5b600091825260208083209091019290925582815260099091526040808220849055858252812055600880548061226357634e487b7160e01b600052603160045260246000fd5b6001900381819060005260206000200160009055905550505050565b600061228a83611072565b6001600160a01b039093166000908152600660209081526040808320868452825280832085905593825260079052919091209190915550565b6001600160a01b0382166122e95760405162461bcd60e51b815260040161093b90612d59565b6122f281611acf565b1561230f5760405162461bcd60e51b815260040161093b90612ac0565b61231b60008383611eee565b6001600160a01b0382166000908152600360205260408120805460019290612344908490613064565b909155505060008181526002602052604080822080546001600160a01b0319166001600160a01b03861690811790915590518392907fddf252ad1be2c89b69c2b068fc378daa952ba7f163c4a11628f55a4df523b3ef908290a45050565b3b151590565b8280546123b4906130f2565b90600052602060002090601f0160209004810192826123d6576000855561241c565b82601f106123ef57805160ff191683800117855561241c565b8280016001018555821561241c579182015b8281111561241c578251825591602001919060010190612401565b5061242892915061249d565b5090565b5080546000825590600052602060002090810190610dc5919061249d565b82805482825590600052602060002090810192821561241c579160200282015b8281111561241c5781546001600160a01b0319166001600160a01b0384351617825560209092019160019091019061246a565b5b80821115612428576000815560010161249e565b600067ffffffffffffffff808411156124cd576124cd613188565b604051601f8501601f1916810160200182811182821017156124f1576124f1613188565b60405284815291508183850186101561250957600080fd5b8484602083013760006020868301015250509392505050565b80356001600160a01b03811681146108f757600080fd5b60006020828403121561254a578081fd5b61255382612522565b9392505050565b6000806040838503121561256c578081fd5b61257583612522565b915061258360208401612522565b90509250929050565b6000806000606084860312156125a0578081fd5b6125a984612522565b92506125b760208501612522565b9150604084013590509250925092565b600080600080608085870312156125dc578081fd5b6125e585612522565b93506125f360208601612522565b925060408501359150606085013567ffffffffffffffff811115612615578182fd5b8501601f81018713612625578182fd5b612634878235602084016124b2565b91505092959194509250565b60008060408385031215612652578182fd5b61265b83612522565b9150602083013561266b8161319e565b809150509250929050565b60008060408385031215612688578182fd5b61269183612522565b946020939093013593505050565b600080602083850312156126b1578182fd5b823567ffffffffffffffff808211156126c8578384fd5b818501915085601f8301126126db578384fd5b8135818111156126e9578485fd5b86602080830285010111156126fc578485fd5b60209290920196919550909350505050565b60006020828403121561271f578081fd5b81356125538161319e565b60006020828403121561273b578081fd5b81516125538161319e565b600060208284031215612757578081fd5b8135612553816131ac565b600060208284031215612773578081fd5b8151612553816131ac565b60006020828403121561278f578081fd5b813567ffffffffffffffff8111156127a5578182fd5b8201601f810184136127b5578182fd5b611bd7848235602084016124b2565b6000602082840312156127d5578081fd5b5035919050565b6000602082840312156127ed578081fd5b5051919050565b6000815180845261280c8160208601602086016130c6565b601f01601f19169290920160200192915050565b6000845160206128338285838a016130c6565b8551918401916128468184848a016130c6565b855492019183906002810460018083168061286257607f831692505b85831081141561288057634e487b7160e01b88526022600452602488fd5b80801561289457600181146128a5576128d1565b60ff198516885283880195506128d1565b6128ae8b613058565b895b858110156128c95781548a8201529084019088016128b0565b505083880195505b50939b9a5050505050505050505050565b90565b6001600160a01b0391909116815260200190565b6001600160a01b039384168152919092166020820152604081019190915260600190565b6001600160a01b0385811682528416602082015260408101839052608060608201819052600090612950908301846127f4565b9695505050505050565b6001600160a01b039390931683526020830191909152604082015260600190565b6020808252825182820181905260009190848201906040850190845b818110156129b357835183529284019291840191600101612997565b50909695505050505050565b901515815260200190565b60006020825261255360208301846127f4565b6020808252602b908201527f455243373231456e756d657261626c653a206f776e657220696e646578206f7560408201526a74206f6620626f756e647360a81b606082015260800190565b60208082526032908201527f4552433732313a207472616e7366657220746f206e6f6e20455243373231526560408201527131b2b4bb32b91034b6b83632b6b2b73a32b960711b606082015260800190565b60208082526026908201527f4f776e61626c653a206e6577206f776e657220697320746865207a65726f206160408201526564647265737360d01b606082015260800190565b6020808252601c908201527f4552433732313a20746f6b656e20616c7265616479206d696e74656400000000604082015260600190565b60208082526024908201527f4552433732313a207472616e7366657220746f20746865207a65726f206164646040820152637265737360e01b606082015260800190565b60208082526019908201527f4552433732313a20617070726f766520746f2063616c6c657200000000000000604082015260600190565b6020808252602c908201527f4552433732313a206f70657261746f7220717565727920666f72206e6f6e657860408201526b34b9ba32b73a103a37b5b2b760a11b606082015260800190565b60208082526038908201527f4552433732313a20617070726f76652063616c6c6572206973206e6f74206f7760408201527f6e6572206e6f7220617070726f76656420666f7220616c6c0000000000000000606082015260800190565b6020808252602a908201527f4552433732313a2062616c616e636520717565727920666f7220746865207a65604082015269726f206164647265737360b01b606082015260800190565b60208082526029908201527f4552433732313a206f776e657220717565727920666f72206e6f6e657869737460408201526832b73a103a37b5b2b760b91b606082015260800190565b6020808252601690820152751b585e08139195081b1a5b5a5d08195e18d95959195960521b604082015260600190565b60208082526024908201527f6d6178206d696e7420616d6f756e74207065722073657373696f6e20657863656040820152631959195960e21b606082015260800190565b6020808252601a908201527f61646472657373206973206e6f742077686974656c6973746564000000000000604082015260600190565b6020808252818101527f4552433732313a206d696e7420746f20746865207a65726f2061646472657373604082015260600190565b6020808252602c908201527f4552433732313a20617070726f76656420717565727920666f72206e6f6e657860408201526b34b9ba32b73a103a37b5b2b760a11b606082015260800190565b6020808252818101527f4f776e61626c653a2063616c6c6572206973206e6f7420746865206f776e6572604082015260600190565b6020808252601690820152751d1a194818dbdb9d1c9858dd081a5cc81c185d5cd95960521b604082015260600190565b60208082526029908201527f4552433732313a207472616e73666572206f6620746f6b656e2074686174206960408201526839903737ba1037bbb760b91b606082015260800190565b6020808252602f908201527f4552433732314d657461646174613a2055524920717565727920666f72206e6f60408201526e3732bc34b9ba32b73a103a37b5b2b760891b606082015260800190565b60208082526021908201527f4552433732313a20617070726f76616c20746f2063757272656e74206f776e656040820152603960f91b606082015260800190565b602080825260129082015271696e73756666696369656e742066756e647360701b604082015260600190565b60208082526031908201527f4552433732313a207472616e736665722063616c6c6572206973206e6f74206f6040820152701ddb995c881b9bdc88185c1c1c9bdd9959607a1b606082015260800190565b6020808252602c908201527f455243373231456e756d657261626c653a20676c6f62616c20696e646578206f60408201526b7574206f6620626f756e647360a01b606082015260800190565b60208082526017908201527f75736572206973206e6f742077686974656c6973746564000000000000000000604082015260600190565b6020808252601b908201527f6e65656420746f206d696e74206174206c656173742031204e46540000000000604082015260600190565b90815260200190565b60009081526020902090565b600082198211156130775761307761315c565b500190565b60008261308b5761308b613172565b500490565b60008160001904831182151516156130aa576130aa61315c565b500290565b6000828210156130c1576130c161315c565b500390565b60005b838110156130e15781810151838201526020016130c9565b838111156114a65750506000910152565b60028104600182168061310657607f821691505b6020821081141561312757634e487b7160e01b600052602260045260246000fd5b50919050565b60006000198214156131415761314161315c565b5060010190565b60008261315757613157613172565b500690565b634e487b7160e01b600052601160045260246000fd5b634e487b7160e01b600052601260045260246000fd5b634e487b7160e01b600052604160045260246000fd5b8015158114610dc557600080fd5b6001600160e01b031981168114610dc557600080fdfea26469706673582212209e73b59ea63fae1fadf002c22b39310534a2000c80723424acf12e2569017d8664736f6c63430008000033307833623846303241613235396631633535664332616661464639634333363935303734466638304542697066733a2f2f516d5a503648615461546358706273344641767039546952356b3248713176754863613247565542664872354b4e2f697066733a2f2f516d636877387457713765774d676458796752723339445a4233596635335569464545684c684a4d62394e6d50362f68696464656e2e6a736f6e",
  "immutableReferences": {},
  "source": "// SPDX-License-Identifier: GPL-3.0\npragma solidity >=0.7.0 <0.9.0;\nimport \"@openzeppelin/contracts/token/ERC721/extensions/ERC721Enumerable.sol\";\nimport \"@openzeppelin/contracts/access/Ownable.sol\";\nimport \"@openzeppelin/contracts/token/ERC20/IERC20.sol\";\ncontract NFT_Rocket_Elevators_Full_Flat is ERC721Enumerable, Ownable {\n  using Strings for uint256;\n  string public baseURI;\n  string public baseExtension = \".json\";\n  string public notRevealedUri;\n  uint256 public cost = 0.01 ether;\n  uint256 public discountCost = 0.005 ether;\n  uint256 public maxSupply = 1000;\n  uint256 public maxMintAmount = 10;\n  //uint256 public nftPerAddressLimit = 3;\n  bool public paused = false;\n  //bool public revealed = false;\n  // Rocket Elevator Token Info\n  uint256 public NFTRocketCost = 100000;\n  uint256 public discountNFTRocketCost = 50000;\n  string public rocketTokenAddress = \"0x3b8F02Aa259f1c55fC2afaFF9cC3695074Ff80EB\";\n  // Unix Dates\n  uint public saleStartDate = 1640368800; //Date and time (GMT): Friday, December 24, 2021 18:00:00 (1 pm EST)\n  // uint public saleEndDate = 1640908799; //Date and time (GMT): Thursday, December 30, 2021 11:59:59 PM\n  uint public revealDate = 1640613600; //Date and time (GMT): Monday, December 27, 2021 14:00:00 (9 am EST)\n  // Client\n  // bool public onlyWhitelisted = true;\n  address[] public whitelistedAddresses;\n  mapping(address => uint256) public addressMintedBalance;\n  // describes payment that has been completed\n  event PaymentDone(\n      address payer,\n      uint amount,\n      uint date\n  );\n  constructor(\n    string memory _name,\n    string memory _symbol\n  ) ERC721(_name, _symbol) {\n    setBaseURI(\"ipfs://QmZP6HaTaTcXpbs4FAvp9TiR5k2Hq1vuHca2GVUBfHr5KN/\");\n    setNotRevealedURI(\"ipfs://Qmchw8tWq7ewMgdXygRr39DZB3Yf53UiFEEhLhJMb9NmP6/hidden.json\");\n    // addresses given\n    // clients\n    whitelistedAddresses.push(0x49C99dB83eA1cDa354b718A4Be90f4B1C3Dc94A4);\n    whitelistedAddresses.push(0xd1679bB3543e8aD195FF9f3Ac3436039bA389237);\n    \n    // Domin\n    whitelistedAddresses.push(0xde4F53f2735467330B8b884abdd0d131aA98ef82);\n    // Long\n    whitelistedAddresses.push(0xb28C0431f0D4EAd93167c18bc25F7959fd56Dd2A);\n    whitelistedAddresses.push(0x60911dC5af0DF086cd685d9e2d35744e266184a7);\n    whitelistedAddresses.push(0x5e0ACa5Ca440a91dA8D51f893Da92E332A9A5fd5);\n    // Jasmine\n    whitelistedAddresses.push(0x9eDBE91E988294ABe24e0282d21Cbf9Ee796cB20);\n    // Carl\n    whitelistedAddresses.push(0x60911dC5af0DF086cd685d9e2d35744e266184a7);\n  }\n  // internal\n  function _baseURI() internal view virtual override returns (string memory) {\n    return baseURI;\n  }\n  // public\n  // mint function that if there is a presale, it only allows whitelisted users with a discount price to purchase\n  // else, after the actual sale starts, anyone can purchase at regular cost\n  function mint(uint256 _mintAmount) public payable {\n    require(!paused, \"the contract is paused\");\n    uint256 supply = totalSupply();\n    require(_mintAmount > 0, \"need to mint at least 1 NFT\");\n    require(_mintAmount <= maxMintAmount, \"max mint amount per session exceeded\");\n    require(supply + _mintAmount <= maxSupply, \"max NFT limit exceeded\");\n    if (msg.sender != owner()) {\n      bool presale = block.timestamp <= saleStartDate;\n      if (presale) {     \n        require(isWhitelisted(msg.sender), \"user is not whitelisted\");\n        //uint256 ownerMintedCount = addressMintedBalance[msg.sender];\n        //require(ownerMintedCount + _mintAmount <= nftPerAddressLimit, \"max NFT per address exceeded\");\n        require (msg.value >= discountCost * _mintAmount, \"insufficient funds\");\n      }\n      // Correspond to official sale\n      require (msg.value >= cost * _mintAmount, \"insufficient funds\");\n    }\n    for (uint256 i = 1; i <= _mintAmount; i++) {\n      addressMintedBalance[msg.sender]++;\n      _safeMint(msg.sender, supply + i);\n    }\n    emit PaymentDone(msg.sender, _mintAmount, block.timestamp);\n  } // end function \n  function checkIfPresaleOver() public returns (bool){\n    bool presale = block.timestamp <= saleStartDate;\n    return presale;\n  }\n  function mintWithRocketToken(uint _mintAmount) public {\n      uint256 supply = totalSupply();\n      IERC20 rocketToken = IERC20(0x3b8F02Aa259f1c55fC2afaFF9cC3695074Ff80EB);\n      uint accountBalance = rocketToken.balanceOf(msg.sender);\n      if(msg.sender != owner()) {\n        bool presale = block.timestamp <= saleStartDate;\n        if(presale){\n          require(isWhitelisted(msg.sender), \"address is not whitelisted\");\n              require(accountBalance >= discountNFTRocketCost * _mintAmount);\n              rocketToken.transferFrom(msg.sender, address(this), discountNFTRocketCost * _mintAmount);\n        }\n        require(accountBalance >= NFTRocketCost * _mintAmount, \"insufficient funds\");\n        rocketToken.transferFrom(msg.sender, address(this), NFTRocketCost * _mintAmount);\n      }\n      for (uint256 i = 1; i <= _mintAmount; i++){\n          addressMintedBalance[msg.sender]++;\n          _safeMint(msg.sender, supply+i);\n      }\n      emit PaymentDone(msg.sender, _mintAmount, block.timestamp);\n  } // end function\n  function isWhitelisted(address _user) public view returns (bool) {\n    for (uint i = 0; i < whitelistedAddresses.length; i++) {\n      if (whitelistedAddresses[i] == _user) {\n          return true;\n      }\n    }\n    return false;\n  } // end function\n  function walletOfOwner(address _owner)\n    public\n    view\n    returns (uint256[] memory)\n  {\n    uint256 ownerTokenCount = balanceOf(_owner);\n    uint256[] memory tokenIds = new uint256[](ownerTokenCount);\n    for (uint256 i; i < ownerTokenCount; i++) {\n      tokenIds[i] = tokenOfOwnerByIndex(_owner, i);\n    }\n    return tokenIds;\n  }\n  function tokenURI(uint256 tokenId)\n    public\n    view\n    virtual\n    override\n    returns (string memory)\n  {\n    require(\n      _exists(tokenId),\n      \"ERC721Metadata: URI query for nonexistent token\"\n    );\n    if(block.timestamp <= revealDate) {\n        return notRevealedUri;\n    }\n    else {\n    string memory currentBaseURI = _baseURI();\n    return bytes(currentBaseURI).length > 0\n        ? string(abi.encodePacked(currentBaseURI, tokenId.toString(), baseExtension))\n        : \"\";\n    }\n  }\n  //only owner\n  //function reveal() public onlyOwner {\n      //revealed = true;\n  //}\n  \n  //function setNftPerAddressLimit(uint256 _limit) public onlyOwner {\n    //nftPerAddressLimit = _limit;\n  //}\n  \n  // new function to set reveal date\n  function setRevealDate(uint newRevealDate) public onlyOwner {\n      revealDate = newRevealDate;\n  }\n  // new function to set sale start date\n  function setSaleStartDate(uint newSaleStartDate) public onlyOwner {\n      saleStartDate = newSaleStartDate;\n  }\n  function setCost(uint256 _newCost) public onlyOwner {\n    cost = _newCost;\n  }\n  function setDiscountCost(uint256 _newDiscountCost) public onlyOwner {\n    discountCost = _newDiscountCost;\n  }\n  function setmaxMintAmount(uint256 _newmaxMintAmount) public onlyOwner {\n    maxMintAmount = _newmaxMintAmount;\n  }\n  function setBaseURI(string memory _newBaseURI) public onlyOwner {\n    baseURI = _newBaseURI;\n  }\n  function setBaseExtension(string memory _newBaseExtension) public onlyOwner {\n    baseExtension = _newBaseExtension;\n  }\n  \n  function setNotRevealedURI(string memory _notRevealedURI) public onlyOwner {\n    notRevealedUri = _notRevealedURI;\n  }\n  function getSaleStart() public returns (uint) {\n    return saleStartDate;\n  }\n  function pause(bool _state) public onlyOwner {\n    paused = _state;\n  }\n  \n  //function setOnlyWhitelisted(bool _state) public onlyOwner {\n    //onlyWhitelisted = _state;\n  //}\n  \n  function whitelistUsers(address[] calldata _users) public onlyOwner {\n    delete whitelistedAddresses;\n    whitelistedAddresses = _users;\n  }\n  // new function to whitelist specific addresses only\n  function whitelistAddress(address add) public onlyOwner {\n    whitelistedAddresses.push(add);\n  }\n \n  function withdraw() public payable onlyOwner {\n    // This will pay HashLips 5% of the initial sale.\n    // You can remove this if you want, or keep it in to support HashLips and his channel.\n    // =============================================================================\n    // (bool hs, ) = payable(0x943590A42C27D08e3744202c4Ae5eD55c2dE240D).call{value: address(this).balance * 5 / 100}(\"\");\n    // require(hs);\n    // =============================================================================\n    \n    // This will payout the owner 95% of the contract balance.\n    // Do not remove this otherwise you will not be able to withdraw the funds.\n    // =============================================================================\n    (bool os, ) = payable(owner()).call{value: address(this).balance}(\"\");\n    require(os);\n    // =============================================================================\n  }\n}",
  "sourcePath": "/Users/longnguyen/Rocket_Elevator_Blockchain/contracts/SmartContract.sol",
  "compiler": {
    "name": "solc",
    "version": "0.8.0+commit.c7dfd78e.Emscripten.clang"
  },
  "schemaVersion": "3.4.4",
  "updatedAt": "2022-01-03T03:30:45.919Z",
  "devdoc": {
    "kind": "dev",
    "methods": {
      "approve(address,uint256)": {
        "details": "See {IERC721-approve}."
      },
      "balanceOf(address)": {
        "details": "See {IERC721-balanceOf}."
      },
      "getApproved(uint256)": {
        "details": "See {IERC721-getApproved}."
      },
      "isApprovedForAll(address,address)": {
        "details": "See {IERC721-isApprovedForAll}."
      },
      "name()": {
        "details": "See {IERC721Metadata-name}."
      },
      "owner()": {
        "details": "Returns the address of the current owner."
      },
      "ownerOf(uint256)": {
        "details": "See {IERC721-ownerOf}."
      },
      "renounceOwnership()": {
        "details": "Leaves the contract without owner. It will not be possible to call `onlyOwner` functions anymore. Can only be called by the current owner. NOTE: Renouncing ownership will leave the contract without an owner, thereby removing any functionality that is only available to the owner."
      },
      "safeTransferFrom(address,address,uint256)": {
        "details": "See {IERC721-safeTransferFrom}."
      },
      "safeTransferFrom(address,address,uint256,bytes)": {
        "details": "See {IERC721-safeTransferFrom}."
      },
      "setApprovalForAll(address,bool)": {
        "details": "See {IERC721-setApprovalForAll}."
      },
      "supportsInterface(bytes4)": {
        "details": "See {IERC165-supportsInterface}."
      },
      "symbol()": {
        "details": "See {IERC721Metadata-symbol}."
      },
      "tokenByIndex(uint256)": {
        "details": "See {IERC721Enumerable-tokenByIndex}."
      },
      "tokenOfOwnerByIndex(address,uint256)": {
        "details": "See {IERC721Enumerable-tokenOfOwnerByIndex}."
      },
      "tokenURI(uint256)": {
        "details": "See {IERC721Metadata-tokenURI}."
      },
      "totalSupply()": {
        "details": "See {IERC721Enumerable-totalSupply}."
      },
      "transferFrom(address,address,uint256)": {
        "details": "See {IERC721-transferFrom}."
      },
      "transferOwnership(address)": {
        "details": "Transfers ownership of the contract to a new account (`newOwner`). Can only be called by the current owner."
      }
    },
    "version": 1
  },
  "userdoc": {
    "kind": "user",
    "methods": {},
    "version": 1
  }
}