{
  "contractName": "SmartContract",
  "abi": [
    {
      "inputs": [
        {
          "internalType": "string",
          "name": "_name",
          "type": "string"
        },
        {
          "internalType": "string",
          "name": "_symbol",
          "type": "string"
        }
      ],
      "stateMutability": "nonpayable",
      "type": "constructor"
    },
    {
      "anonymous": false,
      "inputs": [
        {
          "indexed": true,
          "internalType": "address",
          "name": "owner",
          "type": "address"
        },
        {
          "indexed": true,
          "internalType": "address",
          "name": "approved",
          "type": "address"
        },
        {
          "indexed": true,
          "internalType": "uint256",
          "name": "tokenId",
          "type": "uint256"
        }
      ],
      "name": "Approval",
      "type": "event"
    },
    {
      "anonymous": false,
      "inputs": [
        {
          "indexed": true,
          "internalType": "address",
          "name": "owner",
          "type": "address"
        },
        {
          "indexed": true,
          "internalType": "address",
          "name": "operator",
          "type": "address"
        },
        {
          "indexed": false,
          "internalType": "bool",
          "name": "approved",
          "type": "bool"
        }
      ],
      "name": "ApprovalForAll",
      "type": "event"
    },
    {
      "anonymous": false,
      "inputs": [
        {
          "indexed": true,
          "internalType": "address",
          "name": "previousOwner",
          "type": "address"
        },
        {
          "indexed": true,
          "internalType": "address",
          "name": "newOwner",
          "type": "address"
        }
      ],
      "name": "OwnershipTransferred",
      "type": "event"
    },
    {
      "anonymous": false,
      "inputs": [
        {
          "indexed": false,
          "internalType": "address",
          "name": "payer",
          "type": "address"
        },
        {
          "indexed": false,
          "internalType": "uint256",
          "name": "amount",
          "type": "uint256"
        },
        {
          "indexed": false,
          "internalType": "uint256",
          "name": "date",
          "type": "uint256"
        }
      ],
      "name": "PaymentDone",
      "type": "event"
    },
    {
      "anonymous": false,
      "inputs": [
        {
          "indexed": true,
          "internalType": "address",
          "name": "from",
          "type": "address"
        },
        {
          "indexed": true,
          "internalType": "address",
          "name": "to",
          "type": "address"
        },
        {
          "indexed": true,
          "internalType": "uint256",
          "name": "tokenId",
          "type": "uint256"
        }
      ],
      "name": "Transfer",
      "type": "event"
    },
    {
      "inputs": [],
      "name": "NFTRocketCost",
      "outputs": [
        {
          "internalType": "uint256",
          "name": "",
          "type": "uint256"
        }
      ],
      "stateMutability": "view",
      "type": "function",
      "constant": true
    },
    {
      "inputs": [
        {
          "internalType": "address",
          "name": "",
          "type": "address"
        }
      ],
      "name": "addressMintedBalance",
      "outputs": [
        {
          "internalType": "uint256",
          "name": "",
          "type": "uint256"
        }
      ],
      "stateMutability": "view",
      "type": "function",
      "constant": true
    },
    {
      "inputs": [
        {
          "internalType": "address",
          "name": "to",
          "type": "address"
        },
        {
          "internalType": "uint256",
          "name": "tokenId",
          "type": "uint256"
        }
      ],
      "name": "approve",
      "outputs": [],
      "stateMutability": "nonpayable",
      "type": "function"
    },
    {
      "inputs": [
        {
          "internalType": "address",
          "name": "owner",
          "type": "address"
        }
      ],
      "name": "balanceOf",
      "outputs": [
        {
          "internalType": "uint256",
          "name": "",
          "type": "uint256"
        }
      ],
      "stateMutability": "view",
      "type": "function",
      "constant": true
    },
    {
      "inputs": [],
      "name": "baseExtension",
      "outputs": [
        {
          "internalType": "string",
          "name": "",
          "type": "string"
        }
      ],
      "stateMutability": "view",
      "type": "function",
      "constant": true
    },
    {
      "inputs": [],
      "name": "baseURI",
      "outputs": [
        {
          "internalType": "string",
          "name": "",
          "type": "string"
        }
      ],
      "stateMutability": "view",
      "type": "function",
      "constant": true
    },
    {
      "inputs": [],
      "name": "cost",
      "outputs": [
        {
          "internalType": "uint256",
          "name": "",
          "type": "uint256"
        }
      ],
      "stateMutability": "view",
      "type": "function",
      "constant": true
    },
    {
      "inputs": [],
      "name": "discountCost",
      "outputs": [
        {
          "internalType": "uint256",
          "name": "",
          "type": "uint256"
        }
      ],
      "stateMutability": "view",
      "type": "function",
      "constant": true
    },
    {
      "inputs": [],
      "name": "discountNFTRocketCost",
      "outputs": [
        {
          "internalType": "uint256",
          "name": "",
          "type": "uint256"
        }
      ],
      "stateMutability": "view",
      "type": "function",
      "constant": true
    },
    {
      "inputs": [
        {
          "internalType": "uint256",
          "name": "tokenId",
          "type": "uint256"
        }
      ],
      "name": "getApproved",
      "outputs": [
        {
          "internalType": "address",
          "name": "",
          "type": "address"
        }
      ],
      "stateMutability": "view",
      "type": "function",
      "constant": true
    },
    {
      "inputs": [
        {
          "internalType": "address",
          "name": "owner",
          "type": "address"
        },
        {
          "internalType": "address",
          "name": "operator",
          "type": "address"
        }
      ],
      "name": "isApprovedForAll",
      "outputs": [
        {
          "internalType": "bool",
          "name": "",
          "type": "bool"
        }
      ],
      "stateMutability": "view",
      "type": "function",
      "constant": true
    },
    {
      "inputs": [],
      "name": "maxMintAmount",
      "outputs": [
        {
          "internalType": "uint256",
          "name": "",
          "type": "uint256"
        }
      ],
      "stateMutability": "view",
      "type": "function",
      "constant": true
    },
    {
      "inputs": [],
      "name": "maxSupply",
      "outputs": [
        {
          "internalType": "uint256",
          "name": "",
          "type": "uint256"
        }
      ],
      "stateMutability": "view",
      "type": "function",
      "constant": true
    },
    {
      "inputs": [],
      "name": "name",
      "outputs": [
        {
          "internalType": "string",
          "name": "",
          "type": "string"
        }
      ],
      "stateMutability": "view",
      "type": "function",
      "constant": true
    },
    {
      "inputs": [],
      "name": "nftPerAddressLimit",
      "outputs": [
        {
          "internalType": "uint256",
          "name": "",
          "type": "uint256"
        }
      ],
      "stateMutability": "view",
      "type": "function",
      "constant": true
    },
    {
      "inputs": [],
      "name": "notRevealedUri",
      "outputs": [
        {
          "internalType": "string",
          "name": "",
          "type": "string"
        }
      ],
      "stateMutability": "view",
      "type": "function",
      "constant": true
    },
    {
      "inputs": [],
      "name": "onlyWhitelisted",
      "outputs": [
        {
          "internalType": "bool",
          "name": "",
          "type": "bool"
        }
      ],
      "stateMutability": "view",
      "type": "function",
      "constant": true
    },
    {
      "inputs": [],
      "name": "owner",
      "outputs": [
        {
          "internalType": "address",
          "name": "",
          "type": "address"
        }
      ],
      "stateMutability": "view",
      "type": "function",
      "constant": true
    },
    {
      "inputs": [
        {
          "internalType": "uint256",
          "name": "tokenId",
          "type": "uint256"
        }
      ],
      "name": "ownerOf",
      "outputs": [
        {
          "internalType": "address",
          "name": "",
          "type": "address"
        }
      ],
      "stateMutability": "view",
      "type": "function",
      "constant": true
    },
    {
      "inputs": [],
      "name": "paused",
      "outputs": [
        {
          "internalType": "bool",
          "name": "",
          "type": "bool"
        }
      ],
      "stateMutability": "view",
      "type": "function",
      "constant": true
    },
    {
      "inputs": [],
      "name": "renounceOwnership",
      "outputs": [],
      "stateMutability": "nonpayable",
      "type": "function"
    },
    {
      "inputs": [],
      "name": "revealed",
      "outputs": [
        {
          "internalType": "bool",
          "name": "",
          "type": "bool"
        }
      ],
      "stateMutability": "view",
      "type": "function",
      "constant": true
    },
    {
      "inputs": [],
      "name": "rocketTokenAddress",
      "outputs": [
        {
          "internalType": "string",
          "name": "",
          "type": "string"
        }
      ],
      "stateMutability": "view",
      "type": "function",
      "constant": true
    },
    {
      "inputs": [
        {
          "internalType": "address",
          "name": "from",
          "type": "address"
        },
        {
          "internalType": "address",
          "name": "to",
          "type": "address"
        },
        {
          "internalType": "uint256",
          "name": "tokenId",
          "type": "uint256"
        }
      ],
      "name": "safeTransferFrom",
      "outputs": [],
      "stateMutability": "nonpayable",
      "type": "function"
    },
    {
      "inputs": [
        {
          "internalType": "address",
          "name": "from",
          "type": "address"
        },
        {
          "internalType": "address",
          "name": "to",
          "type": "address"
        },
        {
          "internalType": "uint256",
          "name": "tokenId",
          "type": "uint256"
        },
        {
          "internalType": "bytes",
          "name": "_data",
          "type": "bytes"
        }
      ],
      "name": "safeTransferFrom",
      "outputs": [],
      "stateMutability": "nonpayable",
      "type": "function"
    },
    {
      "inputs": [],
      "name": "saleEnd",
      "outputs": [
        {
          "internalType": "uint256",
          "name": "",
          "type": "uint256"
        }
      ],
      "stateMutability": "view",
      "type": "function",
      "constant": true
    },
    {
      "inputs": [],
      "name": "saleStart",
      "outputs": [
        {
          "internalType": "uint256",
          "name": "",
          "type": "uint256"
        }
      ],
      "stateMutability": "view",
      "type": "function",
      "constant": true
    },
    {
      "inputs": [
        {
          "internalType": "address",
          "name": "operator",
          "type": "address"
        },
        {
          "internalType": "bool",
          "name": "approved",
          "type": "bool"
        }
      ],
      "name": "setApprovalForAll",
      "outputs": [],
      "stateMutability": "nonpayable",
      "type": "function"
    },
    {
      "inputs": [
        {
          "internalType": "bytes4",
          "name": "interfaceId",
          "type": "bytes4"
        }
      ],
      "name": "supportsInterface",
      "outputs": [
        {
          "internalType": "bool",
          "name": "",
          "type": "bool"
        }
      ],
      "stateMutability": "view",
      "type": "function",
      "constant": true
    },
    {
      "inputs": [],
      "name": "symbol",
      "outputs": [
        {
          "internalType": "string",
          "name": "",
          "type": "string"
        }
      ],
      "stateMutability": "view",
      "type": "function",
      "constant": true
    },
    {
      "inputs": [
        {
          "internalType": "uint256",
          "name": "index",
          "type": "uint256"
        }
      ],
      "name": "tokenByIndex",
      "outputs": [
        {
          "internalType": "uint256",
          "name": "",
          "type": "uint256"
        }
      ],
      "stateMutability": "view",
      "type": "function",
      "constant": true
    },
    {
      "inputs": [
        {
          "internalType": "address",
          "name": "owner",
          "type": "address"
        },
        {
          "internalType": "uint256",
          "name": "index",
          "type": "uint256"
        }
      ],
      "name": "tokenOfOwnerByIndex",
      "outputs": [
        {
          "internalType": "uint256",
          "name": "",
          "type": "uint256"
        }
      ],
      "stateMutability": "view",
      "type": "function",
      "constant": true
    },
    {
      "inputs": [],
      "name": "totalSupply",
      "outputs": [
        {
          "internalType": "uint256",
          "name": "",
          "type": "uint256"
        }
      ],
      "stateMutability": "view",
      "type": "function",
      "constant": true
    },
    {
      "inputs": [
        {
          "internalType": "address",
          "name": "from",
          "type": "address"
        },
        {
          "internalType": "address",
          "name": "to",
          "type": "address"
        },
        {
          "internalType": "uint256",
          "name": "tokenId",
          "type": "uint256"
        }
      ],
      "name": "transferFrom",
      "outputs": [],
      "stateMutability": "nonpayable",
      "type": "function"
    },
    {
      "inputs": [
        {
          "internalType": "address",
          "name": "newOwner",
          "type": "address"
        }
      ],
      "name": "transferOwnership",
      "outputs": [],
      "stateMutability": "nonpayable",
      "type": "function"
    },
    {
      "inputs": [
        {
          "internalType": "uint256",
          "name": "",
          "type": "uint256"
        }
      ],
      "name": "whitelistedAddresses",
      "outputs": [
        {
          "internalType": "address",
          "name": "",
          "type": "address"
        }
      ],
      "stateMutability": "view",
      "type": "function",
      "constant": true
    },
    {
      "inputs": [
        {
          "internalType": "uint256",
          "name": "_mintAmount",
          "type": "uint256"
        }
      ],
      "name": "mint",
      "outputs": [],
      "stateMutability": "payable",
      "type": "function",
      "payable": true
    },
    {
      "inputs": [
        {
          "internalType": "address",
          "name": "_user",
          "type": "address"
        }
      ],
      "name": "isWhitelisted",
      "outputs": [
        {
          "internalType": "bool",
          "name": "",
          "type": "bool"
        }
      ],
      "stateMutability": "view",
      "type": "function",
      "constant": true
    },
    {
      "inputs": [
        {
          "internalType": "address",
          "name": "_owner",
          "type": "address"
        }
      ],
      "name": "walletOfOwner",
      "outputs": [
        {
          "internalType": "uint256[]",
          "name": "",
          "type": "uint256[]"
        }
      ],
      "stateMutability": "view",
      "type": "function",
      "constant": true
    },
    {
      "inputs": [
        {
          "internalType": "uint256",
          "name": "tokenId",
          "type": "uint256"
        }
      ],
      "name": "tokenURI",
      "outputs": [
        {
          "internalType": "string",
          "name": "",
          "type": "string"
        }
      ],
      "stateMutability": "view",
      "type": "function",
      "constant": true
    },
    {
      "inputs": [],
      "name": "reveal",
      "outputs": [],
      "stateMutability": "nonpayable",
      "type": "function"
    },
    {
      "inputs": [
        {
          "internalType": "uint256",
          "name": "_limit",
          "type": "uint256"
        }
      ],
      "name": "setNftPerAddressLimit",
      "outputs": [],
      "stateMutability": "nonpayable",
      "type": "function"
    },
    {
      "inputs": [
        {
          "internalType": "uint256",
          "name": "_newCost",
          "type": "uint256"
        }
      ],
      "name": "setCost",
      "outputs": [],
      "stateMutability": "nonpayable",
      "type": "function"
    },
    {
      "inputs": [
        {
          "internalType": "uint256",
          "name": "_newDiscountCost",
          "type": "uint256"
        }
      ],
      "name": "setDiscountCost",
      "outputs": [],
      "stateMutability": "nonpayable",
      "type": "function"
    },
    {
      "inputs": [
        {
          "internalType": "uint256",
          "name": "_newmaxMintAmount",
          "type": "uint256"
        }
      ],
      "name": "setmaxMintAmount",
      "outputs": [],
      "stateMutability": "nonpayable",
      "type": "function"
    },
    {
      "inputs": [
        {
          "internalType": "string",
          "name": "_newBaseURI",
          "type": "string"
        }
      ],
      "name": "setBaseURI",
      "outputs": [],
      "stateMutability": "nonpayable",
      "type": "function"
    },
    {
      "inputs": [
        {
          "internalType": "string",
          "name": "_newBaseExtension",
          "type": "string"
        }
      ],
      "name": "setBaseExtension",
      "outputs": [],
      "stateMutability": "nonpayable",
      "type": "function"
    },
    {
      "inputs": [
        {
          "internalType": "string",
          "name": "_notRevealedURI",
          "type": "string"
        }
      ],
      "name": "setNotRevealedURI",
      "outputs": [],
      "stateMutability": "nonpayable",
      "type": "function"
    },
    {
      "inputs": [
        {
          "internalType": "bool",
          "name": "_state",
          "type": "bool"
        }
      ],
      "name": "pause",
      "outputs": [],
      "stateMutability": "nonpayable",
      "type": "function"
    },
    {
      "inputs": [
        {
          "internalType": "bool",
          "name": "_state",
          "type": "bool"
        }
      ],
      "name": "setOnlyWhitelisted",
      "outputs": [],
      "stateMutability": "nonpayable",
      "type": "function"
    },
    {
      "inputs": [
        {
          "internalType": "address[]",
          "name": "_users",
          "type": "address[]"
        }
      ],
      "name": "whitelistUsers",
      "outputs": [],
      "stateMutability": "nonpayable",
      "type": "function"
    },
    {
      "inputs": [
        {
          "internalType": "address",
          "name": "add",
          "type": "address"
        }
      ],
      "name": "whitelistAddress",
      "outputs": [],
      "stateMutability": "nonpayable",
      "type": "function"
    },
    {
      "inputs": [],
      "name": "withdraw",
      "outputs": [],
      "stateMutability": "payable",
      "type": "function",
      "payable": true
    },
    {
      "inputs": [
        {
          "internalType": "uint256",
          "name": "_mintAmount",
          "type": "uint256"
        }
      ],
      "name": "mintWithRocketToken",
      "outputs": [],
      "stateMutability": "nonpayable",
      "type": "function"
    }
  ],
  "bytecode": "0x60c06040526005608081905264173539b7b760d91b60a09081526200002891600c9190620003d2565b50662386f26fc10000600e556611c37937e08000600f556103e8601055600a6011556003601255620186a060135561c3506014556015805461ffff191690556040805160608101909152602a808252620038f5602083013980516200009691601691602090910190620003d2565b506361c60aa06017556361ce47ff6018556019805460ff19166001179055348015620000c157600080fd5b506040516200399638038062003996833981016040819052620000e49162000523565b815182908290620000fd906000906020850190620003d2565b50805162000113906001906020840190620003d2565b505050620001306200012a620002aa60201b60201c565b620002ae565b620001546040518060600160405280603681526020016200391f6036913962000300565b62000178604051806080016040528060418152602001620039556041913962000368565b5050601a80546001818101835560008390527f057c384a7d1c54f3a1b2e5e67b2617b8224fdfd1ea7234eea573a6ff665ff63e91820180546001600160a01b03199081167349c99db83ea1cda354b718a4be90f4b1c3dc94a4179091558354808301855583018054821673d1679bb3543e8ad195ff9f3ac3436039ba3892371790558354808301855583018054821673de4f53f2735467330b8b884abdd0d131aa98ef821790558354808301855583018054821673b28c0431f0d4ead93167c18bc25f7959fd56dd2a908117909155845480840186558401805483169091179055835480830185558301805482167360911dc5af0df086cd685d9e2d35744e266184a71790558354918201909355018054909116735e0aca5ca440a91da8d51f893da92e332a9a5fd517905562000612565b3390565b600a80546001600160a01b038381166001600160a01b0319831681179093556040519116919082907f8be0079c531659141344cd1fd0a4f28419497f9722a3daafe3b4186f6b6457e090600090a35050565b6200030a620002aa565b6001600160a01b03166200031d620003c3565b6001600160a01b0316146200034f5760405162461bcd60e51b815260040162000346906200058a565b60405180910390fd5b80516200036490600b906020840190620003d2565b5050565b62000372620002aa565b6001600160a01b031662000385620003c3565b6001600160a01b031614620003ae5760405162461bcd60e51b815260040162000346906200058a565b80516200036490600d906020840190620003d2565b600a546001600160a01b031690565b828054620003e090620005bf565b90600052602060002090601f0160209004810192826200040457600085556200044f565b82601f106200041f57805160ff19168380011785556200044f565b828001600101855582156200044f579182015b828111156200044f57825182559160200191906001019062000432565b506200045d92915062000461565b5090565b5b808211156200045d576000815560010162000462565b600082601f83011262000489578081fd5b81516001600160401b0380821115620004a657620004a6620005fc565b6040516020601f8401601f1916820181018381118382101715620004ce57620004ce620005fc565b6040528382528584018101871015620004e5578485fd5b8492505b83831015620005085785830181015182840182015291820191620004e9565b838311156200051957848185840101525b5095945050505050565b6000806040838503121562000536578182fd5b82516001600160401b03808211156200054d578384fd5b6200055b8683870162000478565b9350602085015191508082111562000571578283fd5b50620005808582860162000478565b9150509250929050565b6020808252818101527f4f776e61626c653a2063616c6c6572206973206e6f7420746865206f776e6572604082015260600190565b600281046001821680620005d457607f821691505b60208210811415620005f657634e487b7160e01b600052602260045260246000fd5b50919050565b634e487b7160e01b600052604160045260246000fd5b6132d380620006226000396000f3fe6080604052600436106103355760003560e01c806370a08231116101ab578063ba4e5c49116100f7578063d5abeb0111610095578063e985e9c51161006f578063e985e9c5146108af578063edec5f27146108cf578063f2c4ce1e146108ef578063f2fde38b1461090f57610335565b8063d5abeb011461085a578063da3ef23f1461086f578063de1cd36a1461088f57610335565b8063c10b9358116100d1578063c10b9358146107f0578063c668286214610805578063c87b56dd1461081a578063d0eb26b01461083a57610335565b8063ba4e5c49146107a6578063ba7d2c76146107c6578063bba64ab4146107db57610335565b806395d89b4111610164578063a22cb4651161013e578063a22cb4651461073c578063a475b5dd1461075c578063ab0bcc4114610771578063b88d4fde1461078657610335565b806395d89b41146106ff5780639c70b51214610714578063a0712d681461072957610335565b806370a082311461066b578063715018a61461068b57806377fab02c146106a05780637f00c7a6146106b55780638da5cb5b146106d557806395b5ae5a146106ea57610335565b80633a515b2f1161028557806344a0d68a1161022357806355f804b3116101fd57806355f804b3146106015780635c975abb146106215780636352211e146106365780636c0360eb1461065657610335565b806344a0d68a146105ac5780634f6ccce7146105cc57806351830227146105ec57610335565b80633ccfd60b1161025f5780633ccfd60b14610537578063415665851461053f57806342842e0e1461055f578063438b63001461057f57610335565b80633a515b2f146104d75780633af32abf146104f75780633c9527641461051757610335565b806313faede6116102f2578063239c70ae116102cc578063239c70ae1461046d57806323b872dd146104825780632f745c59146104a25780633685880e146104c257610335565b806313faede61461041657806318160ddd1461043857806318cae2691461044d57610335565b806301ffc9a71461033a57806302329a291461037057806306fdde0314610392578063081812fc146103b4578063081c8c44146103e1578063095ea7b3146103f6575b600080fd5b34801561034657600080fd5b5061035a6103553660046127ea565b61092f565b6040516103679190612a63565b60405180910390f35b34801561037c57600080fd5b5061039061038b3660046127b2565b61095c565b005b34801561039e57600080fd5b506103a76109b7565b6040516103679190612a6e565b3480156103c057600080fd5b506103d46103cf366004612868565b610a49565b6040516103679190612989565b3480156103ed57600080fd5b506103a7610a8c565b34801561040257600080fd5b5061039061041136600461271a565b610b1a565b34801561042257600080fd5b5061042b610bb2565b604051610367919061312a565b34801561044457600080fd5b5061042b610bb8565b34801561045957600080fd5b5061042b6104683660046125e4565b610bbe565b34801561047957600080fd5b5061042b610bd0565b34801561048e57600080fd5b5061039061049d366004612630565b610bd6565b3480156104ae57600080fd5b5061042b6104bd36600461271a565b610c0e565b3480156104ce57600080fd5b5061042b610c60565b3480156104e357600080fd5b506103906104f2366004612868565b610c66565b34801561050357600080fd5b5061035a6105123660046125e4565b610caa565b34801561052357600080fd5b506103906105323660046127b2565b610d23565b610390610d75565b34801561054b57600080fd5b5061039061055a3660046125e4565b610e27565b34801561056b57600080fd5b5061039061057a366004612630565b610eb8565b34801561058b57600080fd5b5061059f61059a3660046125e4565b610ed3565b6040516103679190612a1f565b3480156105b857600080fd5b506103906105c7366004612868565b610f91565b3480156105d857600080fd5b5061042b6105e7366004612868565b610fd5565b3480156105f857600080fd5b5061035a611030565b34801561060d57600080fd5b5061039061061c366004612822565b61103e565b34801561062d57600080fd5b5061035a611094565b34801561064257600080fd5b506103d4610651366004612868565b61109d565b34801561066257600080fd5b506103a76110d2565b34801561067757600080fd5b5061042b6106863660046125e4565b6110df565b34801561069757600080fd5b50610390611123565b3480156106ac57600080fd5b5061042b61116e565b3480156106c157600080fd5b506103906106d0366004612868565b611174565b3480156106e157600080fd5b506103d46111b8565b3480156106f657600080fd5b506103a76111c7565b34801561070b57600080fd5b506103a76111d4565b34801561072057600080fd5b5061035a6111e3565b610390610737366004612868565b6111ec565b34801561074857600080fd5b506103906107573660046126e4565b6113ca565b34801561076857600080fd5b50610390611498565b34801561077d57600080fd5b5061042b6114e8565b34801561079257600080fd5b506103906107a136600461266b565b6114ee565b3480156107b257600080fd5b506103d46107c1366004612868565b61152d565b3480156107d257600080fd5b5061042b611557565b3480156107e757600080fd5b5061042b61155d565b3480156107fc57600080fd5b5061042b611563565b34801561081157600080fd5b506103a7611569565b34801561082657600080fd5b506103a7610835366004612868565b611576565b34801561084657600080fd5b50610390610855366004612868565b61169d565b34801561086657600080fd5b5061042b6116e1565b34801561087b57600080fd5b5061039061088a366004612822565b6116e7565b34801561089b57600080fd5b506103906108aa366004612868565b611739565b3480156108bb57600080fd5b5061035a6108ca3660046125fe565b6119f1565b3480156108db57600080fd5b506103906108ea366004612743565b611a1f565b3480156108fb57600080fd5b5061039061090a366004612822565b611a76565b34801561091b57600080fd5b5061039061092a3660046125e4565b611ac8565b60006001600160e01b0319821663780e9d6360e01b1480610954575061095482611b36565b90505b919050565b610964611b76565b6001600160a01b03166109756111b8565b6001600160a01b0316146109a45760405162461bcd60e51b815260040161099b90612eb5565b60405180910390fd5b6015805460ff1916911515919091179055565b6060600080546109c6906131cd565b80601f01602080910402602001604051908101604052809291908181526020018280546109f2906131cd565b8015610a3f5780601f10610a1457610100808354040283529160200191610a3f565b820191906000526020600020905b815481529060010190602001808311610a2257829003601f168201915b5050505050905090565b6000610a5482611b7a565b610a705760405162461bcd60e51b815260040161099b90612e69565b506000908152600460205260409020546001600160a01b031690565b600d8054610a99906131cd565b80601f0160208091040260200160405190810160405280929190818152602001828054610ac5906131cd565b8015610b125780601f10610ae757610100808354040283529160200191610b12565b820191906000526020600020905b815481529060010190602001808311610af557829003601f168201915b505050505081565b6000610b258261109d565b9050806001600160a01b0316836001600160a01b03161415610b595760405162461bcd60e51b815260040161099b90612fb2565b806001600160a01b0316610b6b611b76565b6001600160a01b03161480610b875750610b87816108ca611b76565b610ba35760405162461bcd60e51b815260040161099b90612c99565b610bad8383611b97565b505050565b600e5481565b60085490565b601b6020526000908152604090205481565b60115481565b610be7610be1611b76565b82611c05565b610c035760405162461bcd60e51b815260040161099b9061301f565b610bad838383611c8a565b6000610c19836110df565b8210610c375760405162461bcd60e51b815260040161099b90612a81565b506001600160a01b03919091166000908152600660209081526040808320938352929052205490565b60135481565b610c6e611b76565b6001600160a01b0316610c7f6111b8565b6001600160a01b031614610ca55760405162461bcd60e51b815260040161099b90612eb5565b600f55565b6000805b601a54811015610d1a57826001600160a01b0316601a8281548110610ce357634e487b7160e01b600052603260045260246000fd5b6000918252602090912001546001600160a01b03161415610d08576001915050610957565b80610d1281613208565b915050610cae565b50600092915050565b610d2b611b76565b6001600160a01b0316610d3c6111b8565b6001600160a01b031614610d625760405162461bcd60e51b815260040161099b90612eb5565b6019805460ff1916911515919091179055565b610d7d611b76565b6001600160a01b0316610d8e6111b8565b6001600160a01b031614610db45760405162461bcd60e51b815260040161099b90612eb5565b6000610dbe6111b8565b6001600160a01b031647604051610dd490612986565b60006040518083038185875af1925050503d8060008114610e11576040519150601f19603f3d011682016040523d82523d6000602084013e610e16565b606091505b5050905080610e2457600080fd5b50565b610e2f611b76565b6001600160a01b0316610e406111b8565b6001600160a01b031614610e665760405162461bcd60e51b815260040161099b90612eb5565b601a80546001810182556000919091527f057c384a7d1c54f3a1b2e5e67b2617b8224fdfd1ea7234eea573a6ff665ff63e0180546001600160a01b0319166001600160a01b0392909216919091179055565b610bad838383604051806020016040528060008152506114ee565b60606000610ee0836110df565b905060008167ffffffffffffffff811115610f0b57634e487b7160e01b600052604160045260246000fd5b604051908082528060200260200182016040528015610f34578160200160208202803683370190505b50905060005b82811015610f8957610f4c8582610c0e565b828281518110610f6c57634e487b7160e01b600052603260045260246000fd5b602090810291909101015280610f8181613208565b915050610f3a565b509392505050565b610f99611b76565b6001600160a01b0316610faa6111b8565b6001600160a01b031614610fd05760405162461bcd60e51b815260040161099b90612eb5565b600e55565b6000610fdf610bb8565b8210610ffd5760405162461bcd60e51b815260040161099b90613070565b6008828154811061101e57634e487b7160e01b600052603260045260246000fd5b90600052602060002001549050919050565b601554610100900460ff1681565b611046611b76565b6001600160a01b03166110576111b8565b6001600160a01b03161461107d5760405162461bcd60e51b815260040161099b90612eb5565b805161109090600b906020840190612453565b5050565b60155460ff1681565b6000818152600260205260408120546001600160a01b0316806109545760405162461bcd60e51b815260040161099b90612d40565b600b8054610a99906131cd565b60006001600160a01b0382166111075760405162461bcd60e51b815260040161099b90612cf6565b506001600160a01b031660009081526003602052604090205490565b61112b611b76565b6001600160a01b031661113c6111b8565b6001600160a01b0316146111625760405162461bcd60e51b815260040161099b90612eb5565b61116c6000611db7565b565b60145481565b61117c611b76565b6001600160a01b031661118d6111b8565b6001600160a01b0316146111b35760405162461bcd60e51b815260040161099b90612eb5565b601155565b600a546001600160a01b031690565b60168054610a99906131cd565b6060600180546109c6906131cd565b60195460ff1681565b60155460ff161561120f5760405162461bcd60e51b815260040161099b90612eea565b6000611219610bb8565b90506000821161123b5760405162461bcd60e51b815260040161099b906130f3565b60115482111561125d5760405162461bcd60e51b815260040161099b90612db9565b60105461126a838361313f565b11156112885760405162461bcd60e51b815260040161099b90612d89565b6112906111b8565b6001600160a01b0316336001600160a01b03161461137a576017544211611344576112ba33610caa565b6112d65760405162461bcd60e51b815260040161099b906130bc565b336000908152601b60205260409020546012546112f3848361313f565b11156113115760405162461bcd60e51b815260040161099b90612b9b565b82600f5461131f919061316b565b34101561133e5760405162461bcd60e51b815260040161099b90612ff3565b5061137a565b601854421161137a5781600e5461135b919061316b565b34101561137a5760405162461bcd60e51b815260040161099b90612ff3565b60015b828111610bad57336000908152601b6020526040812080549161139f83613208565b909155506113b89050336113b3838561313f565b611e09565b806113c281613208565b91505061137d565b6113d2611b76565b6001600160a01b0316826001600160a01b031614156114035760405162461bcd60e51b815260040161099b90612c16565b8060056000611410611b76565b6001600160a01b03908116825260208083019390935260409182016000908120918716808252919093529120805460ff191692151592909217909155611454611b76565b6001600160a01b03167f17307eab39ab6107e8899845ad3d59bd9653f200f220920489ca2b5937696c318360405161148c9190612a63565b60405180910390a35050565b6114a0611b76565b6001600160a01b03166114b16111b8565b6001600160a01b0316146114d75760405162461bcd60e51b815260040161099b90612eb5565b6015805461ff001916610100179055565b60175481565b6114ff6114f9611b76565b83611c05565b61151b5760405162461bcd60e51b815260040161099b9061301f565b61152784848484611e23565b50505050565b601a818154811061153d57600080fd5b6000918252602090912001546001600160a01b0316905081565b60125481565b600f5481565b60185481565b600c8054610a99906131cd565b606061158182611b7a565b61159d5760405162461bcd60e51b815260040161099b90612f63565b601554610100900460ff1661163e57600d80546115b9906131cd565b80601f01602080910402602001604051908101604052809291908181526020018280546115e5906131cd565b80156116325780601f1061160757610100808354040283529160200191611632565b820191906000526020600020905b81548152906001019060200180831161161557829003601f168201915b50505050509050610957565b6000611648611e56565b905060008151116116685760405180602001604052806000815250611696565b8061167284611e65565b600c604051602001611686939291906128c4565b6040516020818303038152906040525b9392505050565b6116a5611b76565b6001600160a01b03166116b66111b8565b6001600160a01b0316146116dc5760405162461bcd60e51b815260040161099b90612eb5565b601255565b60105481565b6116ef611b76565b6001600160a01b03166117006111b8565b6001600160a01b0316146117265760405162461bcd60e51b815260040161099b90612eb5565b805161109090600c906020840190612453565b6000611743610bb8565b6040516370a0823160e01b8152909150733b8f02aa259f1c55fc2afaff9cc3695074ff80eb9060009082906370a0823190611782903390600401612989565b60206040518083038186803b15801561179a57600080fd5b505afa1580156117ae573d6000803e3d6000fd5b505050506040513d601f19601f820116820180604052508101906117d29190612880565b336000908152601b6020526040902054601254919250906117f3868361313f565b11156118115760405162461bcd60e51b815260040161099b90612b9b565b6118196111b8565b6001600160a01b0316336001600160a01b03161461196357601754421161190e5761184333610caa565b61185f5760405162461bcd60e51b815260040161099b90612dfd565b8460145461186d919061316b565b82101561187957600080fd5b826001600160a01b03166323b872dd333088601454611898919061316b565b6040518463ffffffff1660e01b81526004016118b69392919061299d565b602060405180830381600087803b1580156118d057600080fd5b505af11580156118e4573d6000803e3d6000fd5b505050506040513d601f19601f8201168201806040525081019061190891906127ce565b50611963565b60185442116119635784601354611925919061316b565b8210156119445760405162461bcd60e51b815260040161099b90612ff3565b826001600160a01b03166323b872dd333088601354611898919061316b565b60015b8581116119ae57336000908152601b6020526040812080549161198883613208565b9091555061199c9050336113b3838861313f565b806119a681613208565b915050611966565b507fbebec2d19ea8d9e88190609292a424056d54cc57eedf2d75737cedee4fa2938b3386426040516119e2939291906129fe565b60405180910390a15050505050565b6001600160a01b03918216600090815260056020908152604080832093909416825291909152205460ff1690565b611a27611b76565b6001600160a01b0316611a386111b8565b6001600160a01b031614611a5e5760405162461bcd60e51b815260040161099b90612eb5565b611a6a601a60006124d7565b610bad601a83836124f5565b611a7e611b76565b6001600160a01b0316611a8f6111b8565b6001600160a01b031614611ab55760405162461bcd60e51b815260040161099b90612eb5565b805161109090600d906020840190612453565b611ad0611b76565b6001600160a01b0316611ae16111b8565b6001600160a01b031614611b075760405162461bcd60e51b815260040161099b90612eb5565b6001600160a01b038116611b2d5760405162461bcd60e51b815260040161099b90612b1e565b610e2481611db7565b60006001600160e01b031982166380ac58cd60e01b1480611b6757506001600160e01b03198216635b5e139f60e01b145b80610954575061095482611f80565b3390565b6000908152600260205260409020546001600160a01b0316151590565b600081815260046020526040902080546001600160a01b0319166001600160a01b0384169081179091558190611bcc8261109d565b6001600160a01b03167f8c5be1e5ebec7d5bd14f71427d1e84f3dd0314c0f7b2291e5b200ac8c7c3b92560405160405180910390a45050565b6000611c1082611b7a565b611c2c5760405162461bcd60e51b815260040161099b90612c4d565b6000611c378361109d565b9050806001600160a01b0316846001600160a01b03161480611c725750836001600160a01b0316611c6784610a49565b6001600160a01b0316145b80611c825750611c8281856119f1565b949350505050565b826001600160a01b0316611c9d8261109d565b6001600160a01b031614611cc35760405162461bcd60e51b815260040161099b90612f1a565b6001600160a01b038216611ce95760405162461bcd60e51b815260040161099b90612bd2565b611cf4838383611f99565b611cff600082611b97565b6001600160a01b0383166000908152600360205260408120805460019290611d2890849061318a565b90915550506001600160a01b0382166000908152600360205260408120805460019290611d5690849061313f565b909155505060008181526002602052604080822080546001600160a01b0319166001600160a01b0386811691821790925591518493918716917fddf252ad1be2c89b69c2b068fc378daa952ba7f163c4a11628f55a4df523b3ef91a4505050565b600a80546001600160a01b038381166001600160a01b0319831681179093556040519116919082907f8be0079c531659141344cd1fd0a4f28419497f9722a3daafe3b4186f6b6457e090600090a35050565b611090828260405180602001604052806000815250612022565b611e2e848484611c8a565b611e3a84848484612055565b6115275760405162461bcd60e51b815260040161099b90612acc565b6060600b80546109c6906131cd565b606081611e8a57506040805180820190915260018152600360fc1b6020820152610957565b8160005b8115611eb45780611e9e81613208565b9150611ead9050600a83613157565b9150611e8e565b60008167ffffffffffffffff811115611edd57634e487b7160e01b600052604160045260246000fd5b6040519080825280601f01601f191660200182016040528015611f07576020820181803683370190505b5090505b8415611c8257611f1c60018361318a565b9150611f29600a86613223565b611f3490603061313f565b60f81b818381518110611f5757634e487b7160e01b600052603260045260246000fd5b60200101906001600160f81b031916908160001a905350611f79600a86613157565b9450611f0b565b6001600160e01b031981166301ffc9a760e01b14919050565b611fa4838383610bad565b6001600160a01b038316611fc057611fbb81612170565b611fe3565b816001600160a01b0316836001600160a01b031614611fe357611fe383826121b4565b6001600160a01b038216611fff57611ffa81612251565b610bad565b826001600160a01b0316826001600160a01b031614610bad57610bad828261232a565b61202c838361236e565b6120396000848484612055565b610bad5760405162461bcd60e51b815260040161099b90612acc565b6000612069846001600160a01b031661244d565b1561216557836001600160a01b031663150b7a02612085611b76565b8786866040518563ffffffff1660e01b81526004016120a794939291906129c1565b602060405180830381600087803b1580156120c157600080fd5b505af19250505080156120f1575060408051601f3d908101601f191682019092526120ee91810190612806565b60015b61214b573d80801561211f576040519150601f19603f3d011682016040523d82523d6000602084013e612124565b606091505b5080516121435760405162461bcd60e51b815260040161099b90612acc565b805181602001fd5b6001600160e01b031916630a85bd0160e11b149050611c82565b506001949350505050565b600880546000838152600960205260408120829055600182018355919091527ff3f7a9fe364faab93b216da50a3214154f22a0a2b415b23a84c8169e8b636ee30155565b600060016121c1846110df565b6121cb919061318a565b60008381526007602052604090205490915080821461221e576001600160a01b03841660009081526006602090815260408083208584528252808320548484528184208190558352600790915290208190555b5060009182526007602090815260408084208490556001600160a01b039094168352600681528383209183525290812055565b6008546000906122639060019061318a565b6000838152600960205260408120546008805493945090928490811061229957634e487b7160e01b600052603260045260246000fd5b9060005260206000200154905080600883815481106122c857634e487b7160e01b600052603260045260246000fd5b600091825260208083209091019290925582815260099091526040808220849055858252812055600880548061230e57634e487b7160e01b600052603160045260246000fd5b6001900381819060005260206000200160009055905550505050565b6000612335836110df565b6001600160a01b039093166000908152600660209081526040808320868452825280832085905593825260079052919091209190915550565b6001600160a01b0382166123945760405162461bcd60e51b815260040161099b90612e34565b61239d81611b7a565b156123ba5760405162461bcd60e51b815260040161099b90612b64565b6123c660008383611f99565b6001600160a01b03821660009081526003602052604081208054600192906123ef90849061313f565b909155505060008181526002602052604080822080546001600160a01b0319166001600160a01b03861690811790915590518392907fddf252ad1be2c89b69c2b068fc378daa952ba7f163c4a11628f55a4df523b3ef908290a45050565b3b151590565b82805461245f906131cd565b90600052602060002090601f01602090048101928261248157600085556124c7565b82601f1061249a57805160ff19168380011785556124c7565b828001600101855582156124c7579182015b828111156124c75782518255916020019190600101906124ac565b506124d3929150612548565b5090565b5080546000825590600052602060002090810190610e249190612548565b8280548282559060005260206000209081019282156124c7579160200282015b828111156124c75781546001600160a01b0319166001600160a01b03843516178255602090920191600190910190612515565b5b808211156124d35760008155600101612549565b600067ffffffffffffffff8084111561257857612578613263565b604051601f8501601f19168101602001828111828210171561259c5761259c613263565b6040528481529150818385018610156125b457600080fd5b8484602083013760006020868301015250509392505050565b80356001600160a01b038116811461095757600080fd5b6000602082840312156125f5578081fd5b611696826125cd565b60008060408385031215612610578081fd5b612619836125cd565b9150612627602084016125cd565b90509250929050565b600080600060608486031215612644578081fd5b61264d846125cd565b925061265b602085016125cd565b9150604084013590509250925092565b60008060008060808587031215612680578081fd5b612689856125cd565b9350612697602086016125cd565b925060408501359150606085013567ffffffffffffffff8111156126b9578182fd5b8501601f810187136126c9578182fd5b6126d88782356020840161255d565b91505092959194509250565b600080604083850312156126f6578182fd5b6126ff836125cd565b9150602083013561270f81613279565b809150509250929050565b6000806040838503121561272c578182fd5b612735836125cd565b946020939093013593505050565b60008060208385031215612755578182fd5b823567ffffffffffffffff8082111561276c578384fd5b818501915085601f83011261277f578384fd5b81358181111561278d578485fd5b86602080830285010111156127a0578485fd5b60209290920196919550909350505050565b6000602082840312156127c3578081fd5b813561169681613279565b6000602082840312156127df578081fd5b815161169681613279565b6000602082840312156127fb578081fd5b813561169681613287565b600060208284031215612817578081fd5b815161169681613287565b600060208284031215612833578081fd5b813567ffffffffffffffff811115612849578182fd5b8201601f81018413612859578182fd5b611c828482356020840161255d565b600060208284031215612879578081fd5b5035919050565b600060208284031215612891578081fd5b5051919050565b600081518084526128b08160208601602086016131a1565b601f01601f19169290920160200192915050565b6000845160206128d78285838a016131a1565b8551918401916128ea8184848a016131a1565b855492019183906002810460018083168061290657607f831692505b85831081141561292457634e487b7160e01b88526022600452602488fd5b808015612938576001811461294957612975565b60ff19851688528388019550612975565b6129528b613133565b895b8581101561296d5781548a820152908401908801612954565b505083880195505b50939b9a5050505050505050505050565b90565b6001600160a01b0391909116815260200190565b6001600160a01b039384168152919092166020820152604081019190915260600190565b6001600160a01b03858116825284166020820152604081018390526080606082018190526000906129f490830184612898565b9695505050505050565b6001600160a01b039390931683526020830191909152604082015260600190565b6020808252825182820181905260009190848201906040850190845b81811015612a5757835183529284019291840191600101612a3b565b50909695505050505050565b901515815260200190565b6000602082526116966020830184612898565b6020808252602b908201527f455243373231456e756d657261626c653a206f776e657220696e646578206f7560408201526a74206f6620626f756e647360a81b606082015260800190565b60208082526032908201527f4552433732313a207472616e7366657220746f206e6f6e20455243373231526560408201527131b2b4bb32b91034b6b83632b6b2b73a32b960711b606082015260800190565b60208082526026908201527f4f776e61626c653a206e6577206f776e657220697320746865207a65726f206160408201526564647265737360d01b606082015260800190565b6020808252601c908201527f4552433732313a20746f6b656e20616c7265616479206d696e74656400000000604082015260600190565b6020808252601c908201527f6d6178204e465420706572206164647265737320657863656564656400000000604082015260600190565b60208082526024908201527f4552433732313a207472616e7366657220746f20746865207a65726f206164646040820152637265737360e01b606082015260800190565b60208082526019908201527f4552433732313a20617070726f766520746f2063616c6c657200000000000000604082015260600190565b6020808252602c908201527f4552433732313a206f70657261746f7220717565727920666f72206e6f6e657860408201526b34b9ba32b73a103a37b5b2b760a11b606082015260800190565b60208082526038908201527f4552433732313a20617070726f76652063616c6c6572206973206e6f74206f7760408201527f6e6572206e6f7220617070726f76656420666f7220616c6c0000000000000000606082015260800190565b6020808252602a908201527f4552433732313a2062616c616e636520717565727920666f7220746865207a65604082015269726f206164647265737360b01b606082015260800190565b60208082526029908201527f4552433732313a206f776e657220717565727920666f72206e6f6e657869737460408201526832b73a103a37b5b2b760b91b606082015260800190565b6020808252601690820152751b585e08139195081b1a5b5a5d08195e18d95959195960521b604082015260600190565b60208082526024908201527f6d6178206d696e7420616d6f756e74207065722073657373696f6e20657863656040820152631959195960e21b606082015260800190565b6020808252601a908201527f61646472657373206973206e6f742077686974656c6973746564000000000000604082015260600190565b6020808252818101527f4552433732313a206d696e7420746f20746865207a65726f2061646472657373604082015260600190565b6020808252602c908201527f4552433732313a20617070726f76656420717565727920666f72206e6f6e657860408201526b34b9ba32b73a103a37b5b2b760a11b606082015260800190565b6020808252818101527f4f776e61626c653a2063616c6c6572206973206e6f7420746865206f776e6572604082015260600190565b6020808252601690820152751d1a194818dbdb9d1c9858dd081a5cc81c185d5cd95960521b604082015260600190565b60208082526029908201527f4552433732313a207472616e73666572206f6620746f6b656e2074686174206960408201526839903737ba1037bbb760b91b606082015260800190565b6020808252602f908201527f4552433732314d657461646174613a2055524920717565727920666f72206e6f60408201526e3732bc34b9ba32b73a103a37b5b2b760891b606082015260800190565b60208082526021908201527f4552433732313a20617070726f76616c20746f2063757272656e74206f776e656040820152603960f91b606082015260800190565b602080825260129082015271696e73756666696369656e742066756e647360701b604082015260600190565b60208082526031908201527f4552433732313a207472616e736665722063616c6c6572206973206e6f74206f6040820152701ddb995c881b9bdc88185c1c1c9bdd9959607a1b606082015260800190565b6020808252602c908201527f455243373231456e756d657261626c653a20676c6f62616c20696e646578206f60408201526b7574206f6620626f756e647360a01b606082015260800190565b60208082526017908201527f75736572206973206e6f742077686974656c6973746564000000000000000000604082015260600190565b6020808252601b908201527f6e65656420746f206d696e74206174206c656173742031204e46540000000000604082015260600190565b90815260200190565b60009081526020902090565b6000821982111561315257613152613237565b500190565b6000826131665761316661324d565b500490565b600081600019048311821515161561318557613185613237565b500290565b60008282101561319c5761319c613237565b500390565b60005b838110156131bc5781810151838201526020016131a4565b838111156115275750506000910152565b6002810460018216806131e157607f821691505b6020821081141561320257634e487b7160e01b600052602260045260246000fd5b50919050565b600060001982141561321c5761321c613237565b5060010190565b6000826132325761323261324d565b500690565b634e487b7160e01b600052601160045260246000fd5b634e487b7160e01b600052601260045260246000fd5b634e487b7160e01b600052604160045260246000fd5b8015158114610e2457600080fd5b6001600160e01b031981168114610e2457600080fdfea26469706673582212200481d5ef7cf28fea84a2f7cb0c2e4698fc2d980f32038a757273457d1d42561f64736f6c63430008000033307833623846303241613235396631633535664332616661464639634333363935303734466638304542697066733a2f2f516d5a503648615461546358706273344641767039546952356b3248713176754863613247565542664872354b4e2f697066733a2f2f516d636877387457713765774d676458796752723339445a4233596635335569464545684c684a4d62394e6d50362f68696464656e2e6a736f6e",
  "immutableReferences": {},
  "source": "// SPDX-License-Identifier: GPL-3.0\n// Amended by HashLips\n/**\n    !Disclaimer!\n    These contracts have been used to create tutorials,\n    and was created for the purpose to teach people\n    how to create smart contracts on the blockchain.\n    please review this code on your own before using any of\n    the following code for production.\n    HashLips will not be liable in any way if for the use \n    of the code. That being said, the code has been tested \n    to the best of the developers' knowledge to work as intended.\n*/\npragma solidity >=0.7.0 <0.9.0;\nimport \"@openzeppelin/contracts/token/ERC721/extensions/ERC721Enumerable.sol\";\nimport \"@openzeppelin/contracts/access/Ownable.sol\";\nimport \"@openzeppelin/contracts/token/ERC20/IERC20.sol\";\nimport \"@openzeppelin/contracts/token/ERC20/ERC20.sol\";\ncontract SmartContract is ERC721Enumerable, Ownable {\n  using Strings for uint256;\n  string public baseURI;\n  string public baseExtension = \".json\";\n  string public notRevealedUri;\n  uint256 public cost = 0.01 ether;\n  uint256 public discountCost = 0.005 ether;\n  uint256 public maxSupply = 1000;\n  uint256 public maxMintAmount = 10;\n  uint256 public nftPerAddressLimit = 3;\n  uint256 public NFTRocketCost = 100000;\n  uint256 public discountNFTRocketCost = 50000;\n  bool public paused = false;\n  bool public revealed = false;\n  string public rocketTokenAddress = \"0x3b8F02Aa259f1c55fC2afaFF9cC3695074Ff80EB\";\n  // Unix Times\n  uint public saleStart = 1640368800; //Date and time (GMT): Friday, December 24, 2021 18:00:00 (1 pm EST)\n  uint public saleEnd = 1640908799; //Date and time (GMT): Thursday, December 30, 2021 11:59:59 PM\n  // uint public revealedStart = 1640613600; //Date and time (GMT): Monday, December 27, 2021 14:00:00 (9 am EST)\n  // Client\n  bool public onlyWhitelisted = true;\n  address[] public whitelistedAddresses;\n  event PaymentDone(\n      address payer,\n      uint amount,\n      uint date\n  );\n  mapping(address => uint256) public addressMintedBalance;\n  constructor(\n    string memory _name,\n    string memory _symbol\n  ) ERC721(_name, _symbol) {\n    setBaseURI(\"ipfs://QmZP6HaTaTcXpbs4FAvp9TiR5k2Hq1vuHca2GVUBfHr5KN/\");\n    setNotRevealedURI(\"ipfs://Qmchw8tWq7ewMgdXygRr39DZB3Yf53UiFEEhLhJMb9NmP6/hidden.json\");\n    // addresses given\n    // clients\n    whitelistedAddresses.push(0x49C99dB83eA1cDa354b718A4Be90f4B1C3Dc94A4);\n    whitelistedAddresses.push(0xd1679bB3543e8aD195FF9f3Ac3436039bA389237);\n    // Domin\n    whitelistedAddresses.push(0xde4F53f2735467330B8b884abdd0d131aA98ef82);\n    // Long\n    whitelistedAddresses.push(0xb28C0431f0D4EAd93167c18bc25F7959fd56Dd2A);\n    // Jasmine\n    whitelistedAddresses.push(0xb28C0431f0D4EAd93167c18bc25F7959fd56Dd2A);\n    // Carl\n    whitelistedAddresses.push(0x60911dC5af0DF086cd685d9e2d35744e266184a7);\n    whitelistedAddresses.push(0x5e0ACa5Ca440a91dA8D51f893Da92E332A9A5fd5);\n    \n  }\n  // internal\n  function _baseURI() internal view virtual override returns (string memory) {\n    return baseURI;\n  }\n  // public\n  function mint(uint256 _mintAmount) public payable {\n    require(!paused, \"the contract is paused\");\n    uint256 supply = totalSupply();\n    require(_mintAmount > 0, \"need to mint at least 1 NFT\");\n    require(_mintAmount <= maxMintAmount, \"max mint amount per session exceeded\");\n    require(supply + _mintAmount <= maxSupply, \"max NFT limit exceeded\");\n    if (msg.sender != owner()) {\n      if (block.timestamp <= saleStart) {     \n        require(isWhitelisted(msg.sender), \"user is not whitelisted\");\n        uint256 ownerMintedCount = addressMintedBalance[msg.sender];\n        require(ownerMintedCount + _mintAmount <= nftPerAddressLimit, \"max NFT per address exceeded\");\n        require (msg.value >= discountCost * _mintAmount, \"insufficient funds\");\n      }\n      // Correspond to official sale\n      else if (block.timestamp <= saleEnd) {\n      require (msg.value >= cost * _mintAmount, \"insufficient funds\");\n      } else {\n      }\n    }\n    for (uint256 i = 1; i <= _mintAmount; i++) {\n      addressMintedBalance[msg.sender]++;\n      _safeMint(msg.sender, supply + i);\n    }\n  } // end function \n  \n  function isWhitelisted(address _user) public view returns (bool) {\n    for (uint i = 0; i < whitelistedAddresses.length; i++) {\n      if (whitelistedAddresses[i] == _user) {\n          return true;\n      }\n    }\n    return false;\n  } // end function\n  function walletOfOwner(address _owner)\n    public\n    view\n    returns (uint256[] memory)\n  {\n    uint256 ownerTokenCount = balanceOf(_owner);\n    uint256[] memory tokenIds = new uint256[](ownerTokenCount);\n    for (uint256 i; i < ownerTokenCount; i++) {\n      tokenIds[i] = tokenOfOwnerByIndex(_owner, i);\n    }\n    return tokenIds;\n  }\n  function tokenURI(uint256 tokenId)\n    public\n    view\n    virtual\n    override\n    returns (string memory)\n  {\n    require(\n      _exists(tokenId),\n      \"ERC721Metadata: URI query for nonexistent token\"\n    );\n    if(revealed == false) {\n        return notRevealedUri;\n    }\n    string memory currentBaseURI = _baseURI();\n    return bytes(currentBaseURI).length > 0\n        ? string(abi.encodePacked(currentBaseURI, tokenId.toString(), baseExtension))\n        : \"\";\n  }\n  //only owner\n  function reveal() public onlyOwner {\n      revealed = true;\n  }\n  \n  function setNftPerAddressLimit(uint256 _limit) public onlyOwner {\n    nftPerAddressLimit = _limit;\n  }\n  \n  function setCost(uint256 _newCost) public onlyOwner {\n    cost = _newCost;\n  }\n  function setDiscountCost(uint256 _newDiscountCost) public onlyOwner {\n    discountCost = _newDiscountCost;\n  }\n  function setmaxMintAmount(uint256 _newmaxMintAmount) public onlyOwner {\n    maxMintAmount = _newmaxMintAmount;\n  }\n  function setBaseURI(string memory _newBaseURI) public onlyOwner {\n    baseURI = _newBaseURI;\n  }\n  function setBaseExtension(string memory _newBaseExtension) public onlyOwner {\n    baseExtension = _newBaseExtension;\n  }\n  \n  function setNotRevealedURI(string memory _notRevealedURI) public onlyOwner {\n    notRevealedUri = _notRevealedURI;\n  }\n  function pause(bool _state) public onlyOwner {\n    paused = _state;\n  }\n  \n  function setOnlyWhitelisted(bool _state) public onlyOwner {\n    onlyWhitelisted = _state;\n  }\n  \n  function whitelistUsers(address[] calldata _users) public onlyOwner {\n    delete whitelistedAddresses;\n    whitelistedAddresses = _users;\n  }\n  function whitelistAddress(address add) public onlyOwner {\n    whitelistedAddresses.push(add);\n  }\n \n  function withdraw() public payable onlyOwner {\n    // This will pay HashLips 5% of the initial sale.\n    // You can remove this if you want, or keep it in to support HashLips and his channel.\n    // =============================================================================\n    // (bool hs, ) = payable(0x943590A42C27D08e3744202c4Ae5eD55c2dE240D).call{value: address(this).balance * 5 / 100}(\"\");\n    // require(hs);\n    // =============================================================================\n    \n    // This will payout the owner 95% of the contract balance.\n    // Do not remove this otherwise you will not be able to withdraw the funds.\n    // =============================================================================\n    (bool os, ) = payable(owner()).call{value: address(this).balance}(\"\");\n    require(os);\n    // =============================================================================\n  }\n  function mintWithRocketToken(uint _mintAmount) public {\n      uint256 supply = totalSupply();\n      IERC20 rocketToken = IERC20(0x3b8F02Aa259f1c55fC2afaFF9cC3695074Ff80EB);\n      uint accountBalance = rocketToken.balanceOf(msg.sender);\n      \n      \n      uint256 ownerMintedCount = addressMintedBalance[msg.sender];\n      require(ownerMintedCount + _mintAmount <= nftPerAddressLimit, \"max NFT per address exceeded\");\n      if(msg.sender != owner()){\n          if(block.timestamp <= saleStart){\n              require(isWhitelisted(msg.sender), \"address is not whitelisted\");\n              require(accountBalance >= discountNFTRocketCost * _mintAmount);\n              rocketToken.transferFrom(msg.sender, address(this), discountNFTRocketCost * _mintAmount);\n          } else if (block.timestamp <= saleEnd){\n              require(accountBalance >= NFTRocketCost * _mintAmount, \"insufficient funds\");\n              rocketToken.transferFrom(msg.sender, address(this), NFTRocketCost * _mintAmount);\n          }else{\n              \n          }\n      }\n      for (uint256 i = 1; i <= _mintAmount; i++){\n          addressMintedBalance[msg.sender]++;\n          _safeMint(msg.sender, supply+i);\n      }\n      emit PaymentDone(msg.sender, _mintAmount, block.timestamp);\n  }\n}",
  "sourcePath": "/Users/longnguyen/Rocket_Elevator_Blockchain/contracts/SmartContract.sol",
  "compiler": {
    "name": "solc",
    "version": "0.8.0+commit.c7dfd78e.Emscripten.clang"
  },
  "schemaVersion": "3.4.4",
  "updatedAt": "2022-01-03T03:30:48.713Z",
  "networkType": "ethereum",
  "devdoc": {
    "kind": "dev",
    "methods": {
      "approve(address,uint256)": {
        "details": "See {IERC721-approve}."
      },
      "balanceOf(address)": {
        "details": "See {IERC721-balanceOf}."
      },
      "getApproved(uint256)": {
        "details": "See {IERC721-getApproved}."
      },
      "isApprovedForAll(address,address)": {
        "details": "See {IERC721-isApprovedForAll}."
      },
      "name()": {
        "details": "See {IERC721Metadata-name}."
      },
      "owner()": {
        "details": "Returns the address of the current owner."
      },
      "ownerOf(uint256)": {
        "details": "See {IERC721-ownerOf}."
      },
      "renounceOwnership()": {
        "details": "Leaves the contract without owner. It will not be possible to call `onlyOwner` functions anymore. Can only be called by the current owner. NOTE: Renouncing ownership will leave the contract without an owner, thereby removing any functionality that is only available to the owner."
      },
      "safeTransferFrom(address,address,uint256)": {
        "details": "See {IERC721-safeTransferFrom}."
      },
      "safeTransferFrom(address,address,uint256,bytes)": {
        "details": "See {IERC721-safeTransferFrom}."
      },
      "setApprovalForAll(address,bool)": {
        "details": "See {IERC721-setApprovalForAll}."
      },
      "supportsInterface(bytes4)": {
        "details": "See {IERC165-supportsInterface}."
      },
      "symbol()": {
        "details": "See {IERC721Metadata-symbol}."
      },
      "tokenByIndex(uint256)": {
        "details": "See {IERC721Enumerable-tokenByIndex}."
      },
      "tokenOfOwnerByIndex(address,uint256)": {
        "details": "See {IERC721Enumerable-tokenOfOwnerByIndex}."
      },
      "tokenURI(uint256)": {
        "details": "See {IERC721Metadata-tokenURI}."
      },
      "totalSupply()": {
        "details": "See {IERC721Enumerable-totalSupply}."
      },
      "transferFrom(address,address,uint256)": {
        "details": "See {IERC721-transferFrom}."
      },
      "transferOwnership(address)": {
        "details": "Transfers ownership of the contract to a new account (`newOwner`). Can only be called by the current owner."
      }
    },
    "version": 1
  },
  "userdoc": {
    "kind": "user",
    "methods": {},
    "version": 1
  }
}